:020000040800F2
:10000000C0070020890100087F190008A517000813
:100010007D1900088F020008CD1B000800000000B9
:10002000000000000000000000000000831900082C
:100030009D020008000000008119000885190008D1
:10004000A3010008A3010008A3010008A301000800
:10005000A3010008A3010008A3010008A3010008F0
:10006000A3010008A3010008A3010008A3010008E0
:10007000A3010008A3010008A3010008A3010008D0
:10008000A3010008A3010008A3010008A3010008C0
:10009000A301000891020008A3010008A3010008C1
:1000A000E9190008F5190008A3010008A3010008D8
:1000B000A3010008A3010008A3010008A301000890
:1000C000A3010008A3010008A3010008A301000880
:1000D000A3010008A3010008A3010008A301000870
:1000E000A3010008A3010008A301000800F002F822
:1000F00000F03AF80AA090E8000C82448344AAF188
:100100000107DA4501D100F02FF8AFF2090EBAE885
:100110000F0013F0010F18BFFB1A43F0010318473B
:100120003C2400005C240000103A24BF78C878C149
:10013000FAD8520724BF30C830C144BF04680C60ED
:10014000704700000023002400250026103A28BF35
:1001500078C1FBD8520728BF30C148BF0B60704739
:100160001FB51FBD10B510BD00F058F81146FFF7C0
:10017000F7FF01F081FD00F076F803B4FFF7F2FF1E
:1001800003BC00F07DF8000009488047094800479B
:10019000FEE7FEE7FEE7FEE7FEE7FEE7FEE7FEE737
:1001A000FEE7FEE704480549054A064B7047000094
:1001B000E7190008ED000008C0010020C00700207A
:1001C000C0030020C00300204FF0000200B513461A
:1001D00094469646203922BFA0E80C50A0E80C5067
:1001E000B1F12001BFF4F7AF090728BFA0E80C5018
:1001F00048BF0CC05DF804EB890028BF40F8042B11
:1002000008BF704748BF20F8022B11F0804F18BF7D
:1002100000F8012B7047704770477047754600F033
:100220002BF8AE4605006946534620F00700854688
:1002300018B020B5FFF7B6FFBDE820404FF000062C
:100240004FF000074FF000084FF0000B21F00701BE
:10025000AC46ACE8C009ACE8C009ACE8C009ACE801
:10026000C0098D46704710B50446AFF300802046A4
:10027000BDE81040FFF781BF0048704760010020D3
:1002800001491820ABBEFEE7260002007047FEE7DA
:10029000014800F071B9000068000020704790F834
:1002A0002020012A07D0022A05D0416A41F480218A
:1002B000416201207047006842690A4342610020A0
:1002C0007047F0B590F820500468A468012D05D05F
:1002D000022D03D0416A41F480215DE014F0406FAB
:1002E00001D1E50055D5C4F30164022C03D9416A5C
:1002F00041F4000150E00125A5401D608D684FF4D8
:10030000C0739DB1CE6835434E6845EAC6050668A0
:1003100003EB0417F5514FF4C275076805EB04159C
:100320000E697E51097D012905D009E00E88CD684E
:1003300045EA4655EBE701684E5946F480764E5142
:100340001179D579567941EA056195792D0445EA07
:10035000062529434FF4C676056806EB0416A95115
:100360001178D57841EA0561957852782D0445EAEF
:10037000022211434FF4C475026805EB0415515174
:10038000006803EB0411425842F001024250002081
:10039000F0BD416A41F4001141620120F0BD00004E
:1003A00010B590F820300268012B07D0022B05D041
:1003B000416A41F480214162012010BDD2F800025F
:1003C00040F00100C2F80002087D00F01F03012088
:1003D0009840D2F81C328343C2F81C32CB69B3B9BF
:1003E000D2F80C328343C2F80C328C894B6864F328
:1003F0001F434C6902EBC404C4F840320C890B68FB
:1004000064F31F434C6902EBC404C4F84432CB6963
:10041000012B16D1D2F80C320343C2F80C320C88EF
:100420004B6864F31F434C6902EBC404C4F84032C8
:100430000C89CB6864F31F434C6902EBC404C4F815
:1004400044328B69002BD2F804320FD053EA0003F8
:10045000C2F804320B69002BD2F8143208D00343DF
:10046000C2F81432096A012904D008E08343EFE797
:100470008343F5E7D2F81C120143C2F81C12D2F8EC
:10048000000220F00100C2F80002002010BD7047F9
:1004900030B590F82040012C05D0022C03D0416AE1
:1004A00041F480215DE00468002955D02469A40747
:1004B00054D04FF4D874056804EB01142D5915F08D
:1004C0000405956005682D594ED0ED085560056806
:1004D0002C5904F00204D4604FF4DA74056804EB7C
:1004E00001142D5905F00F05156105682D59C5F347
:1004F0000725956105682C59240C54614FF4DC7272
:10050000046802EB0112A4581C700468A458240A61
:100510005C700468A458240C9C700468A258120EE5
:10052000DA704FF4DE72046802EB0112A4581C71F9
:100530000468A458240A5C710468A458240C9C71B3
:100540000468A258120EDA71006881B1016941F0A5
:1005500020010161002030BDE468A8E7416A41F450
:1005600000114162012030BD6D0D1560AFE7C1681B
:1005700041F02001C160EDE72DE9F05F054600681C
:1005800000244669D0F804908768D0F80CB0D0F801
:1005900010A0D0F81880F10748D0F90714D0012135
:1005A0008160B80703D5284600F009FA0CE0780707
:1005B00002D54FF4006407E0380702D54FF48054A9
:1005C00002E0284600F0FAF9F80516D529684FF43C
:1005D00080708860B80503D5284600F0F2F90CE079
:1005E000780502D544F4005407E0380502D544F4F8
:1005F000804402E0284600F0E3F9F80316D52968A4
:100600004FF480308860B80303D5284600F0DBF94A
:100610000CE0780302D544F4004407E0380302D527
:1006200044F4803402E0284600F0CCF9300707D5C6
:100630005FEACB6004D52968102044F40074C860D8
:1006400070074FF0080707D55FEA0B7004D52868DC
:10065000C760284600F05AF9B00706D52868C06878
:10066000800702D0284600F052F9700607D55FEAED
:10067000CA6004D52968102044F480640861B0067B
:1006800007D55FEA0A7004D528680761284600F09C
:100690003FF9F00606D528680069800702D0284691
:1006A00000F038F9B00308D55FEAC96005D52968BC
:1006B00010204860284600F053F9F00307D55FEAA0
:1006C000097004D528684760284600F07DF9300499
:1006D00046D55FEA497040D5F00504D55FEAC87099
:1006E00001D044F00104B00504D55FEA887001D55B
:1006F00044F00204700504D55FEA487001D544F067
:100700000404300529D518F0700F26D008F07000C9
:10071000402815D006DC102809D020280AD030281F
:1007200016D10AE050280ED0602811D10EE044F016
:1007300008040DE044F010040AE044F0200407E04F
:1007400044F0400404E044F0800401E044F4807488
:100750002868816921F0700181612968042048605E
:10076000002C05D0686A204368622846FFF78FFE98
:10077000BDE8F09F70B5040003D094F8200010B1DC
:1007800004E0012070BD204600F082F82068016876
:1007900041F00101016000F021FA0546052604E060
:1007A00000F01CFA401B0A2811D820684068C007D6
:1007B000F6D02068016821F00201016000F00EFA15
:1007C00005460BE000F00AFA401B0A2806D9606AC9
:1007D00040F40030606284F82060D2E7206840680E
:1007E0008007EFD4207E0128206801683DD021F0E9
:1007F00080010160607E01282068016838D021F006
:1008000040010160A07E01282068016833D021F0FA
:1008100020010160E07E0128206801682ED041F0AF
:1008200010010160207F01282068016829D021F093
:1008300008010160607F01282068016824D021F050
:1008400004010160D4E902010843D4E90412114310
:1008500008436168491E08432168C861002060623E
:10086000012084F82000002070BD41F08001C0E725
:1008700041F04001C5E741F02001CAE721F0100135
:10088000CFE741F00801D4E741F00401D9E70000C7
:1008900010B586B00021009101910291039100688A
:1008A000174988422AD11748C16941F00071C161D6
:1008B000C16901F000710491816941F00401816115
:1008C0008069114C00F0040004904FF40060009027
:1008D0006946204600F08CF8A01400900220019098
:1008E000032003906946204600F082F8002211465A
:1008F000152000F0D7F9152000F0C6F906B010BD9C
:10090000006400400010024000080140704770473A
:1009100070470000104B10B5A3F11C020121FFF736
:10092000B7FD0D480D49C2780A7003794B704079C4
:10093000887064214A4303EB830102EB41010144C7
:100940000648C01EC1632D39B1F5877F03D8C16346
:1009500001EBC111816010BD540100200300002093
:100960007047000070B5044690F82000012804D0BC
:10097000606A40F40020606218E0022084F82000E1
:100980002068016821F00101016000F027F90546A7
:100990000EE000BF00F022F9401B0A2808D9606A67
:1009A00040F400306062052084F82000012070BD12
:1009B00020684068C007EDD1606270BD7047704725
:1009C00070477047704770477047000070B5044625
:1009D00000F004F90546601C02D004480078044485
:1009E00000F0FCF8401BA042FAD370BD5800002074
:1009F0002DE9F84FDFF8B891002409F1040A0AF153
:100A0000040B23460F270BF1040EC9E00125A54076
:100A10002A40AA427DD1674ED1F804C0ACEB06084B
:100A2000B44532D014DCBCF1030F3AD009DCBCF180
:100A3000000F2AD0BCF1010F1CD0BCF1020F31D144
:100A40001DE0BCF1110F17D0BCF1120F2AD119E033
:100A5000B8F5881F19D006DCB8F5803F15D0B8F579
:100A6000801F1FD111E0B8F5001F0ED0B8F5041F8C
:100A700018D10AE0CB6815E0CB681B1D12E0CB68EB
:100A800008330FE0CB680C330CE08B682BB1012BE3
:100A90004FF0080303D0456104E0042302E0056140
:100AA00000E00023FF2A01D8064601E000F1040619
:100AB0004FEA840501D9A5F12005D6F8008007FA90
:100AC00005FC28EA0C0803FA05F548EA0508C6F80B
:100AD00000804D68ED0062D5374DAE6946F00106E5
:100AE000AE61AD6924F0030605F001050095334DB4
:100AF00006EB050CDCF80850A607360F07FA06F8D7
:100B000025EA0805DFF8B880404503D14FF000081A
:100B100017E044E0DFF8AC80404502D14FF0010817
:100B20000FE0DFF8A480404502D14FF0020808E052
:100B3000DFF89880404502D14FF0030801E04FF004
:100B4000040808FA06F848EA0508CCF808804D6859
:100B5000D9F80060ED034D4601D5164300E09643F9
:100B60002E604D68DAF80060AD03554601D5164396
:100B700000E096432E604D68DBF80060ED025D46B4
:100B800001D5164300E096432E604D68DEF8006004
:100B9000AD02754601D5164300E096432E60641CF5
:100BA0000D682A46E5407FF431AFBDE8F88F0000BC
:100BB000000401400000111000100240000001403C
:100BC00000080140000C01400010014000140140E9
:100BD0000AB1016170470904FBE700000148806821
:100BE00070470000580000200248816802781144D4
:100BF0008160704758000020074810B5016841F037
:100C000010010160032000F06DF80F2000F006F8DD
:100C100000F024F8002010BD0020024070B50D4DFA
:100C200004464FF47A712878B1FBF0F00A4909685C
:100C3000B1FBF0F000F0C4FA48B9102C07D2002242
:100C40002146501E00F02EF800206C6070BD01207F
:100C500070BD00005800002064000020094808B55D
:100C6000816941F001018161816901F00101009117
:100C7000C16941F08051C161C06900F080500090AD
:100C800008BD000000100240002809DB00F01F0230
:100C9000012191404009800000F1E020C0F80011DE
:100CA00070470000F0B40E4B1B680C46C3F30223E0
:100CB000C3F10705042D00D90425191D072901D208
:100CC000002300E0DB1E012606FA05F1491E214043
:100CD00099409E40761E16403143F0BC00F077BF2D
:100CE0000CED00E0064900F0070208684FF6FF032C
:100CF000184040EA0220034A104308607047000091
:100D00000CED00E00000FA052DE9F0470F46050064
:100D100061D0434E306800F00700B84209D2306815
:100D200020F0070038433060306800F00700B84218
:100D300051D128683B4C810712D5400703D5606824
:100D400040F4E06060602878000703D5606840F4F4
:100D5000605060606068A96820F0F000084360603F
:100D60002878C00728D06868012810D02168022898
:100D700010D0890700292EDA616821F003010143B0
:100D80006160FFF72BFF804641F288390DE0216852
:100D90008903EFE78901EDE7FFF720FFA0EB0801EA
:100DA000494502D90320BDE8F0876068696800F012
:100DB0000C00B0EB810FEFD1306800F00700B842B3
:100DC0000BD9306820F0070038433060306800F0FD
:100DD0000700B84201D00120E5E72878400705D593
:100DE0006068E96820F4E0600843606028780007E4
:100DF00006D56068296920F4605040EAC10060604F
:100E000000F018F86168084AC1F30311515CC8404A
:100E10000649086006480068FFF700FF0020C2E7A7
:100E200000200240001002404A2500086400002013
:100E30005C00002012A185B00FC98DE80F0014A03E
:100E4000144A006804905168134801F00C03042B05
:100E500010D0082B0ED1C1F38343C9031DF8030042
:100E60000AD5516804AAC1F34041515C0A4A504373
:100E7000B0FBF1F005B0704708494843FAE70000BD
:100E800002030405060708090A0B0C0D0E0F1010CB
:100E9000010200000010024000127A0000093D002B
:100EA0002DE9F84F040070D02078C04DC00749D01C
:100EB0006868C0F38100012807D06868C0F381002A
:100EC000022809D16868C00306D52868800339D58F
:100ED00060680028E7D035E06068B0F5803F0BD04F
:100EE00010B1B0F5A02F11D0286820F48030286010
:100EF000286820F4802002E0286840F480302860D0
:100F0000606890B1FFF76AFE06460AE0286840F480
:100F100080202860F0E700BFFFF760FE801B642898
:100F200073D828688003F7D50CE0FFF757FE064614
:100F300005E000BFFFF752FE801B6428F0D8286848
:100F40008003F7D420789A4E80074FF001094FF0C4
:100F5000000839D5686810F00C0F07D06868C0F336
:100F60008100022809D16868C00306D42868800778
:100F700014D52069012808D110E02069B0B1C6F865
:100F80000090FFF72BFE074605E00AE1FFF726FE7B
:100F9000C01B0228C4D828688007F7D52868616973
:100FA00020F0F80040EAC10028600DE0C6F800809B
:100FB000FFF714FE074604E0FFF710FEC01B0228EF
:100FC00023D828688007F7D4207800072CD57948E3
:100FD000A169D9B1C0F80090FFF700FE074604E010
:100FE000FFF7FCFDC01B02280FD8686A8007F7D501
:100FF00071484FF4FA510068B0FBF1F0009000BF67
:101000000098411E0091FAD20EE080E0C0F8008006
:10101000FFF7E4FD074604E0FFF7E0FDC01B0228F0
:1010200075D8686A8007F7D42078400760D5E869EA
:101030000027C00008D4E86940F08050E861E86902
:10104000012700F0805000905C480168C90513D466
:101050000168834641F480710160FFF7BFFD82465D
:1010600006E000BFFFF7BAFDA0EB0A0064284ED8E7
:10107000DBF80000C005F5D5E06801280AD008B10A
:10108000052813D0286A20F001002862286A20F081
:10109000040002E0286A40F001002862E06841F2A2
:1010A000883B98B1FFF79AFD82460BE0286A40F032
:1010B00004002862EEE700BFFFF790FDA0EB0A01F5
:1010C00059455AD8286A8007F6D50CE0FFF786FD07
:1010D000824605E0FFF782FDA0EB0A0159454CD896
:1010E000286A8007F6D41FB1E86920F08050E861D3
:1010F000E06988B36968C1F38101022944D00228FC
:10110000C6F8608004D0FFF769FD044638E034E09B
:10111000FFF764FD074604E0FFF760FDC01B0228EF
:101120002BD828688001F7D4206AB0F5803F05D11C
:101130006868A16820F4003008436860D4E90801B9
:101140000843696821F4741108436860C6F8609028
:10115000FFF744FD044606E025E000BFFFF73EFD33
:10116000001B022809D828688001F7D51BE000BFC2
:10117000FFF734FD001B022802D90320BDE8F88FD9
:1011800028688001F4D40EE00128F7D06868226A4C
:1011900000F48031914204D1616A00F470108842F9
:1011A00001D00120EAE70020E8E70000001002403B
:1011B000000042428004424264000020007000406F
:1011C00010B5401EB0F1807F01D3012010BD4FF05B
:1011D000E02460610F21601700F0F9FC0020A0619D
:1011E00007202061002010BD7047704770B590F84F
:1011F0003C20012A26D0012480F83C40022280F8BD
:101200003D2003685A689D6822F070060A683243E0
:101210005A600D4B02689A4208D0B2F1804F05D057
:101220000A4B9A4202D00A4B9A4204D1496825F0EF
:1012300080031943916080F83D40002180F83C1004
:10124000084670BD022070BD002C01400004004023
:10125000000800402DE9F0410D46040003D094F849
:101260003D0018B108E00120BDE8F081002084F8BD
:101270003C00204600F040F8022084F83D00206841
:10128000816844F2070291438160211D206800F0CB
:10129000B7FB226890689169166A2B68AF690343AF
:1012A00040F20330814341EA0721A868EF6908430F
:1012B0004FF6FC418843E96840EA0720014328696A
:1012C0002F6A000140EA0730084369686D6926F01B
:1012D000220646EA0515294393602268906154F876
:1012E000460B0162012004F81F09E0752076E076C4
:1012F0002077A0750020B7E700B585B000210091E8
:1013000001910291039100681649884227D116483D
:10131000816941F400618161816901F40061049196
:10132000816941F0040181618069694600F004002F
:1013300004904FF4407000900C48FFF759FB0022D6
:1013400011461820FFF7AEFC1820FFF79DFC002285
:1013500011461920FFF7A6FC1920FFF795FC05B0F0
:1013600000BD0000002C01400010024000080140B8
:1013700070B590F83E60044690F83F5090F84230C7
:1013800090F84320022021B104290ED0012E1BD158
:1013900014E0012E18D1012B16D184F83E0084F8F8
:1013A000420001220021206820E0012D0CD1012AF9
:1013B0000AD184F83F0084F8430014E0012D03D1E2
:1013C000012B01D1012A01D0012070BD84F83E001B
:1013D00084F83F0084F8420084F843000122002191
:1013E000206800F043FB01220421206800F03EFB4E
:1013F0002068016841F001010160002070BD704764
:1014000070B50446006801694FF00005C9438907BB
:1014100015D4C168C943890711D4E91E01610120AF
:101420002077206880698007204602D0FFF7E7FF19
:1014300004E000F0BFF8204600F062F9257720684C
:101440000169C943490717D4C168C943490713D47F
:101450006FF004010161022020772068806910F498
:10146000407F204602D0FFF7CAFF04E000F0A2F858
:10147000204600F045F9257720680169C94309072E
:1014800016D4C168C943090712D46FF0080101617D
:10149000042020772068C0698007204602D0FFF72B
:1014A000AEFF04E000F086F8204600F029F9257729
:1014B00020680169C943C90617D4C168C943C90670
:1014C00013D46FF010010161082020772068C069F3
:1014D00010F4407F204602D0FFF791FF04E000F0B7
:1014E00069F8204600F00CF9257720680169C943A6
:1014F000C90708D1C168C943C90704D1891E016160
:10150000204600F04DF920680169C943090609D455
:10151000C168C943090605D46FF080010161204606
:10152000FFF762FE20680169C943490609D4C16812
:10153000C943490605D46FF040010161204600F01F
:1015400030F920680169C94389060BD4C168C943D1
:10155000890607D46FF0200101612046BDE8704084
:10156000FFF743BE70BD000000B585B000210091BB
:1015700001910291039100680B49884211D10B48F7
:10158000816941F0040181618069694600F00400CD
:101590000490C02000900220019003900448FFF7BF
:1015A00027FA05B000BD0000000400400010024012
:1015B00000080140704770B5044690F83C000D46A5
:1015C00001280AD0012084F83C0042B1042A18D036
:1015D000082A2AD00C2A4DD139E0022070BD20689B
:1015E00000F052FA2068816941F0080181612068A9
:1015F000816921F004018161206881692A691143B0
:1016000011E0206800F068FA2068816941F4006107
:1016100081612068816921F480618161206881692C
:101620002A6941EA0221816124E0206800F080FA01
:101630002068C16941F00801C1612068C16921F0D9
:101640000401C1612068C1692A69114311E0206861
:1016500000F09AFA2068C16941F40061C161206814
:10166000C16921F48061C1612068C1692A6941EAC8
:101670000221C161002084F83C0070BD10B5040057
:1016800003D094F83D0010B107E0012010BD002008
:1016900084F83C00204600F01FF8022084F83D004A
:1016A000211D206800F0ACF9012084F8460084F880
:1016B0003E0084F83F0084F8400084F8410084F83C
:1016C000420084F8430084F8440084F8450084F81C
:1016D0003D00002010BD000008B5006806498842A2
:1016E00008D10648C16941F00201C161C06900F03A
:1016F0000200009008BD00000004004000100240FD
:101700007047000010B50446022249B104290ED0EA
:10171000082913D094F84100012816D0012010BDEB
:1017200094F83E000128F9D184F83E200FE094F8A7
:101730003F000128F2D184F83F2008E094F84000EF
:101740000128EBD184F8402001E084F841200122F7
:10175000206800F08BF90F492068884203D1426C61
:1017600042F4004242642068884208D0B0F1804FC1
:1017700005D00949884202D00849884204D18168CD
:1017800001F00701062903D0016841F00101016061
:10179000002010BD002C0140000400400008004063
:1017A00070477047FEE7000010B516488AB014492C
:1017B000016012210024C0E901144FF48031C0E916
:1017C00003414461047644768476C4760477447792
:1017D000FEF7D0FF08B172B6FEE701200A21CDE97D
:1017E000040109490890CDE90014CDE90214CDE9BE
:1017F0000640694603480994FEF7D2FD0AB010BDC1
:101800000064004068000020C0FF1F0070B586B073
:1018100000241C480094019402940394816941F0CF
:1018200010018161816901F010010491816941F029
:1018300020018161816901F020010491816941F0F9
:10184000040181618069104E00F004004FF40055DE
:101850000490002229463046FFF7BAF9012000958E
:10186000CDE901040220039069463046FFF7C0F835
:101870001020CDE90004694604480294FFF7B8F847
:1018800006B070BD00100240001001400008014089
:1018900010B58CB024216846FEF796FC002416484B
:1018A000099414490A94C0E900144FF6FF71C0E985
:1018B00002410461446184610120CDE90004CDE965
:1018C00002040494CDE90540079469460A48089447
:1018D000FFF7C0FC08B172B6FEE7099409A90648F3
:1018E0000A94FFF783FC002801D072B6FEE70CB023
:1018F00010BD0000002C01409000002010B58AB0FF
:10190000002407941C2168460894FEF75DFC1A48E1
:101910001849C0E900144FF6FF71C0E902410461A3
:101920008461FFF7ABFE08B172B6FEE7079407A922
:1019300011480894FFF75AFC08B172B6FEE7602020
:10194000CDE900040294002269460B480494FFF795
:1019500032FE08B172B6FEE7042269460648FFF778
:101960002AFE08B172B6FEE70348FFF7FDFD0AB094
:1019700010BD000000040040D8000020FEE7FEE794
:1019800070477047FFF730B930B58FB028216846EF
:10199000FEF71AFC14210AA8FEF716FC0121080420
:1019A000CDE900100024029402250491CDE90750EE
:1019B0004FF4E01009906846FFF772FA08B172B66A
:1019C000FEE70F20CDE90A054FF48060CDE90C4019
:1019D00002210AA80E94FFF797F9002801D072B6E9
:1019E000FEE70FB030BD70470148FFF709BD0000AA
:1019F000900000200148FFF703BD00009000002088
:101A0000F0B50268164B174C174D4FF080479842BF
:101A100005D0B84203D0A04201D0A84203D122F0A1
:101A200070064A683243984205D0B84203D0A042BB
:101A300001D0A84203D122F44074CA6822434C6901
:101A400022F08002224302608A68C2620A688262CF
:101A5000984201D10969016301214161F0BD000093
:101A6000002C0140000400400008004010B501F0C7
:101A70001F030121046A99408C430462016A9A4061
:101A80001143016210BD000030B5026A22F001026C
:101A90000262026A4368846924F073050C682C436F
:101AA00022F002058A682A430A4DA8420BD122F08F
:101AB0000805CA6823F440732A434D6922F00402E2
:101AC0001D438B692B434360846149684163026213
:101AD00030BD0000002C014030B5026A22F0100237
:101AE0000262026A436884690D6824F4E64444EAA9
:101AF00005248D6822F0200242EA05120B4DA8420F
:101B00000ED1CD6822F0800242EA05124D6923F41D
:101B1000406343EA85038D6922F0400243EA85036E
:101B20004360846149688163026230BD002C0140DA
:101B300030B5026A22F480720262036A4268C469A4
:101B400023F4007324F073050C682C438D6843EA7A
:101B500005230C4DA8420ED1CD6823F4006343EA5F
:101B600005234D6922F4405242EA05128D6923F49F
:101B7000806342EA05124260C4614968C16303623E
:101B800030BD0000002C014030B5026A22F48052C2
:101B90000262046A4268C3690D6823F4E64343EABB
:101BA00005238D6824F4005444EA0534064DA84208
:101BB00004D14D6922F4804242EA85124260C36139
:101BC00049680164046230BD002C0140FEE709074A
:101BD000090E002804DB00F1E02080F800147047B3
:101BE00000F00F0000F1E02080F8141D70470000A5
:101BF0002DE9F041FEF7F2FF00F052FB1D4C0546C7
:101C0000A062E16900F02CFCE5610746E062D4E9DE
:101C10000210401A00F02CFB20630546216A00F0F8
:101C20001FFC394600F062FA0646606339462846D2
:101C300000F04AFB616A00F0F7F9014660626069F2
:101C400000F042FB07463146A06900F03DFB064626
:101C50002946206900F038FB314600F0E5F93946A5
:101C600000F0E2F900F0B4F92562C4E91401BDE81E
:101C7000F081000000000020FEF7BEFFFFF784FEA9
:101C8000FFF7C4FDFFF790FDFFF738FEFFF700FEFA
:101C90004A48FEF767FE10214848FEF700FB474818
:101CA0000321B83000F118020161092111610025FA
:101CB00085604FF49B71C5600160057545603C21EE
:101CC0009038FFF755FB3D4800217030FFF71AFDB3
:101CD0003A4804217030FFF715FD39480560011FAF
:101CE0000D60384EC7133760374C4FF6FF7A804689
:101CF0008946A06B322826D1E068002822DB8121AA
:101D000090FBF1F02D30642190FBF1F1DFF8B8C0C9
:101D1000A0648CF800100A2190FBF1F292FBF1F321
:101D200001FB13228CF8012090FBF1F201FB120061
:101D300022498CF802000CF144036246B8311F4876
:101D4000FEF7BFFAA563A06B401CA0633068206457
:101D50003760E1680844A0F50040E060FFF748FF05
:101D60000A20FEF733FED4E914010022134600F0E6
:101D7000F9F8D4E914010ED800F034F84FF6FA71EE
:101D8000884204DDC8F800505146484613E0C8F8C0
:101D90000050494609E000F025F84FF6FA71C842B4
:101DA00005DAC9F80050504641460860A1E7C9F875
:101DB00000504142404601609BE70000680000205F
:101DC00038040040242C014000000020491058BF76
:101DD000C1F140415B1058BFC3F140438B42EFF368
:101DE000008070474FEA41034FEA5353A3F58063E5
:101DF000D3F11E03C8BFD3F1210C0CDD4FF000421C
:101E000042EAC12242EA505232FA03FC8CEAE17CF7
:101E1000ACEBE1707047102BC4BF0020704703F596
:101E2000787CBCF1FF3F04D06FF0004282EA2100D1
:101E3000704770B500F042F8499224800020704746
:101E4000F2E7000051EA030C17D41CF5801F58BFBD
:101E5000BCF5801F00F10680994218BF704708BF8B
:101E60009042704707D711F5801F58BF13F5801FA8
:101E700019D499427047894270471CF5801F08D5D4
:101E8000BCF5801FF7D58B4218BF704708BF824250
:101E900070474FF4001C1CEB410F38BF1CEB430F85
:101EA00001D28B42704770B500F008F892244900C7
:101EB0004FF000514FF08053FFF788BF0EF1020E34
:101EC0002EF0030E5EF8046B364205D4012A43EB74
:101ED000030515F5001F12D8012841EB010C1CF574
:101EE000001F0CD80ED14FEAD17C15F5001F0CEB6A
:101EF0004C0C0CF1020C08BF4CEBD37C04E04FF00F
:101F0000080C01E04FEAD37C0CEB4C0526FA05F6F1
:101F100006F00706B6F1040C06D20EEB860CBDE8FF
:101F200070404CF0010C6047DFE80CF0090B020236
:101F30004FF000414FF00000A1F5002170BD19469F
:101F40001046012851EB010418BFD4F5001484BFDA
:101F5000002001F0004170BD0808A0F500114FEA13
:101F60003101704753EA010C17D41CF5801F58BF8C
:101F7000BCF5801F00F106808B4218BF704708BF78
:101F80008242704707D713F5801F58BF11F5801F95
:101F900019D48B4270479B4270471CF5801F08D5AF
:101FA000BCF5801FF7D5994218BF704708BF904213
:101FB00070474FF4001C1CEB430F38BF1CEB410F64
:101FC00001D2994270470FB40CBC03BCFFF76BBF42
:101FD00043004FEAD30C4FEA3C0C43401FBF40077D
:101FE0000CF1605113F0FE4F70471CF0006F03D1ED
:101FF00000200CF0004170470CF0004343EA5070A1
:1020000010B540EACC0000F0E0F900BF00000092FB
:102010004FEA0001FFF7A0BF4FF000414FF0000072
:10202000A1F500217047000090EA010F48BF81F040
:10203000004100F11C82421A3CBF801A89184FEA05
:10204000D0524FF07F4C1CEA410FA2EBD15318BF86
:102050009CEA026F00F03B804FF0004C4CEA0020FD
:102060004CEA012121FA03FC10EB0C0C1ED202F108
:10207000FF325FEA1C2040EBC25038BF70471CF0B3
:102080007F0F4FEA400C18BFBCF17F4F38BF70473D
:10209000C3F12003994008BF20F00100BCF17F4F3D
:1020A00038BF7047A0F1C04000F0D5B94FEA3C00FE
:1020B000000A40EBC25028BF1CF0FF0F4FEA400C53
:1020C000E6D018BFBCF17F4F38BF7047EAE79CEA03
:1020D000026F05D010EA5C0F08BF00F000407047A7
:1020E00010B500F072F900BF64FBBE3E4FF47F0CE8
:1020F0001CEAD0121EBF1CEAD11392EA0C0F93EA1D
:102100000C0F00F0858090EA010F48BF42F4807206
:1021100040F4000C41F400002CF07F4120F07F409F
:1021200000B58142A2EB03020FF2081CACEB504E4B
:10213000C0F100009EF800E04FEA4E0E00FB0EFCDE
:1021400038BF49004FEA2C1C02F5FA020CFB0EF3D3
:102150004FEACE1E4FEA112C4FEAC1210EEB635E0F
:1021600042EB22420EFB0CFC4FEA1C5300FB031116
:102170004FEA112C4FEA01310EFB0CFC4FEADC4C0C
:1021800000FB0C11C14228BF09184CEB03335DF86A
:1021900004EB10EB410143EBC250B2F57C0F38BFAA
:1021A000704729D512F0F00F1CBF00F1C04000F0BD
:1021B00000407047008182838485868788898B8C64
:1021C0008D8E8F919293959697999A9C9D9FA0A2A0
:1021D000A3A5A7A8AAACAEB0B2B3B5B7B9BCBEC0F0
:1021E000C2C5C7C9CCCED1D4D7D9DCDFE2E6E9EC91
:1021F000F0F3F7FAFE0000004FEA400C0CF1807C8F
:10220000BCF17E4F28BF7047B0F1C04000F023B949
:1022100090EA010F0CEAD11348BF42F48072624584
:1022200038BF634507D213F47F0F16D080EA010050
:1022300000F00040704710B500F0C7F8097EFC3E82
:1022400000F005B880EA010000F00040704780EA25
:10225000010000F0004000F0FEB812F47F0F04BF50
:102260000248704780EA010000F0F5B80000C07F26
:1022700010F0004148BF4042B0FA80F310FA03F278
:10228000C3F19D030BD051EAC35101EB1220530659
:1022900038BF704700F1010008BF20F0010070470F
:1022A000B0FA80F310FA03F2C3F19D030AD0D90506
:1022B00001EB1220530638BF704700F1010008BF40
:1022C00020F00100704700004FF47F0C1CEAD01290
:1022D0001EBF1CEAD11392EA0C0F93EA0C0F00F018
:1022E000478090EA010F48BF42F480724FF0004CE3
:1022F0004CEA00204CEA012102EB0302A0FB01138F
:10230000A2F50002002918BF43F001035B0028BFBB
:102310004FEA330342EB22425FEA132C4CEBC250EC
:102320002EBFBCEB436FB2F57C0F70474FEA036CD6
:10233000BCF1004F08BF20F00100B2F57C0F38BFA0
:1023400070470BD582F0FF0212F5803FC8BF70477F
:1023500000F1C040D8BF00F00040704700F5000C0D
:102360005FEA4C0C48BF7047B0F1C04000F073B852
:1023700090EA010F0CEAD11348BF42F48072624523
:1023800038BF634504D280EA010000F00040704786
:1023900010B500F01AF800BF8900013E00F007B840
:1023A00000F009B85FEA410C5FEA1C6C08D080EAD3
:1023B000010000F050B85FEA400C5FEA1C6CF6D1F7
:1023C0004FF00040A0F5800070470EF1020E2EF095
:1023D000030E5EF8044B244204D44FEA4102B2F1EA
:1023E0007F4F11D84FEA4003B3F17F4F0CD80ED185
:1023F0004FEAD07CB2F17F4F0CEB4C0C0CF1020C8D
:1024000008BF4CEBD17C04E04FF0080C01E04FEA30
:10241000D17C0CEB4C0324FA03F404F00704B4F170
:10242000040C06D20EEB840CBDE810404CF0010CFD
:102430006047DFE80CF0070802024FF00040A0F50B
:10244000800010BD0846420018BFD2F1807288BFDC
:1024500000F0004010BDFF2141EAD050C005704798
:1024600090EA010F48BF81F000413FF5E4AD421A08
:1024700004D882F00042A0EB020011444FEAD0528F
:102480004FF07F4C1CEA410FA2EBD15318BF9CEADE
:10249000026F4AD04FF0004C4CEA00204CEA012178
:1024A00021FA03FCB0EB0C0C0FD412F0FE0F36D067
:1024B0005FEA4C001DD5001240EBC25038BF704798
:1024C0001CF03F0F18BF70470BE0A2F101025FEA5A
:1024D0001C2040EBC25038BF70471CF07F0F18BF64
:1024E0007047C3F12003994014BF401E20F0010043
:1024F000704780084FEA122308BF7047B0FA80FC8B
:10250000A2EB0C02CCF1280C60FA0CF093EA122F2B
:1025100004BF00EBC25070474FEAC3707047130A04
:102520005FEADC1008BF7047F6E79CEA026F04D050
:1025300010EA5C0F08BF0020704710B5FFF745FF99
:1025400040DFF63E81F000407047000000000000D0
:102550000000010203040607080900007C250008AA
:10256000000000206800000028010008E4250008A1
:102570006800002058070000440100080000000027
:102580000000000000000000000000000000A0416A
:1025900052499D390000A5430000000000000000E2
:1025A000000000000000000000000000000000002B
:1025B000000000000000000000000000000000001B
:1025C000000000000000000000000000000000000B
:1025D00000000000010000001000000000000000EA
:0425E0000024F400DF
:04000005080000ED02
:00000001FF
