:020000040800F2
:1000000098480020650300081B2F0008E92C000811
:10001000192F00087F080008F137000800000000D1
:10002000000000000000000000000000A102000825
:100030009908000800000000FD020008A52F000834
:100040007F0300087F0300087F0300087F03000888
:100050007F0300087F0300087F0300087F03000878
:100060007F0300087F0300087F0300087F03000868
:100070007F0300087F0300087F0300087F03000858
:100080007F0300087F0300087F0300087F03000848
:10009000810800088D0800087F0300087F0300081E
:1000A0007F030008893000087F0300087F030008F1
:1000B0007F0300087F0300087F0300087F03000818
:1000C0007F0300087F0300087F0300087F03000808
:1000D0007F0300087F0300087F030008E53700085E
:1000E0007F0300087F0300087F0300087F030008E8
:1000F0007F0300087F0300087F0300087F030008D8
:100100007F0300087F0300087F0300087F030008C7
:100110007F0300087F0300087F0300087F030008B7
:100120007F0300087F0300087F0300087F030008A7
:100130007F0300087F0300087F0300087F03000897
:100140007F0300087F0300087F0300087F03000887
:100150007F0300087F0300087F0300087F03000877
:100160007F0300087F0300087F0300087F03000867
:100170007F0300087F0300087F03000800000000E1
:100180007F0300087F0300087F0300087F03000847
:100190007F0300087F0300087F0300087F03000837
:1001A0007F0300087F0300087F0300087F03000827
:1001B0007F0300087F0300087F0300087F03000817
:1001C0007F0300087F030008000000007F03000891
:1001D0007F0300087F0300087F0300087F030008F7
:1001E0007F0300087F0300087F0300087F030008E7
:1001F0007F0300087F03000800F002F800F041F8D8
:100200000AA090E8000C82448344AAF10107DA4571
:1002100001D100F036F8AFF2090EBAE80F0013F082
:10022000010F18BFFB1A43F001031847C049000033
:10023000E0490000103A24BF78C878C1FAD85207C4
:1002400024BF30C830C144BF04680C607047000050
:100250000023002400250026103A28BF78C1FBD8CF
:10026000520728BF30C148BF0B607047692900F0B2
:100270005981002070471FB504F06CFC1FBD10B5FC
:1002800010BD00F0C2FA1146FFF7F5FF03F060FB66
:1002900000F0E0FA03B4FFF7F2FF03BC00F0E8FA65
:1002A0002D4B19680868B0E8F04F80F30988BFF358
:1002B0006F8F4FF0000080F311887047000000003E
:1002C00008480068006880F308884FF0000080F359
:1002D000148862B661B6BFF34F8FBFF36F8F00DF34
:1002E00000BF00BF08ED00E0DFF80C00016841F43A
:1002F00070010160704700BF88ED00E0EFF30980F6
:10030000BFF36F8F144B1A681EF0100F08BF20ED5B
:10031000108A20E9F04F106009B44FF0500072B617
:1003200080F31188BFF34F8FBFF36F8F62B603F076
:10033000FFFF4FF0000080F3118809BC19680868BE
:10034000B0E8F04F1EF0100F08BFB0EC108A80F339
:100350000988BFF36F8F70474C000020EFF30580D2
:10036000704700000948804709480047FEE7FEE75C
:10037000FEE7FEE7FEE7FEE7FEE7FEE7FEE7FEE755
:1003800004480549054A064B7047000079300008CB
:10039000F901000898420020984800209844002065
:1003A0009844002053EA020C00F069802DE9F04BDC
:1003B0004FF00006002B1FBFB3FA83F503FA05F4D4
:1003C00024FA05F65E4012BF1643B2FA82F502FA2D
:1003D00005F4C5F120051EBF22FA05FC44EA0C0411
:1003E000203556EA044C4FEA144418BF641C4FF001
:1003F00000084FF00009904271EB030C39D300293B
:1004000019BFB1FA81F701FA07F6B0FA80F700FADE
:1004100007F6C7F120071EBF20FA07FC46EA0C06C4
:100420002037B6FBF4FCA7EB0507103F07F01F0BC6
:10043000CBF120060CFA0BFB2CFA06F644BFB346B0
:100440000026202FA4BF5E464FF0000B5BEA060C8F
:1004500008BF4FF0010B19EB0B09ABFB027C48EB1B
:100460000608C01B06FB02CC0BFB03CC71EB0C0196
:10047000C1E70B46024641464846BDE8F08B13B53E
:100480004FF000004FF00001AFF30080BDE81C40CA
:10049000704700000FB41CB5074B06AA7B446946A1
:1004A0000090059800F099F90020694600F0A8F93D
:1004B0001CBC5DF814FB0000610300002DE9F04155
:1004C0000E460446002020622046E168884730B38B
:1004D000252805D0D4E901219047206A401CF2E785
:1004E000E168204600278847050018D0A5F14100A3
:1004F000192802D820354FF4006732462946204695
:100500002760FFF7B3FE40B1012804D0F61D26F0A6
:1005100007060836D8E7361DD6E72846DAE7206A08
:10052000BDE8F0812DE9F0410646002410687529E8
:10053000314616A510D0AFF30080002802DA404201
:1005400013A507E031688A0701D512A502E0490723
:1005500004D511A5012401E0AFF3008000210A2297
:1005600006F1240709E0B0FBF2FCB0FBF2F302FB5A
:100570001C00303078541846491C0028F3D123461B
:100580002A463046BDE8F04100F0C8B8000000003F
:100590002D0000002B0000002000000010B5431CBF
:1005A00002E010F8011B71B18107FAD14FF001325E
:1005B00002C88C1A8C4314EAC211F9D0C01A0A0678
:1005C00003D0C01E10BDC01A10BD0A0401D0801E89
:1005D00010BD0902FCD0401E10BD032A40F230803D
:1005E00010F0030C00F0158011F8013BBCF1020F74
:1005F000624498BF11F801CB00F8013B38BF11F8F5
:10060000013BA2F1040298BF00F801CB38BF00F80B
:10061000013B11F0030300F02580083AC0F0088088
:1006200051F8043B083A51F804CBA0E80810F5E76C
:10063000121D5CBF51F8043B40F8043BAFF300804F
:10064000D20724BF11F8013B11F801CB48BF11F8C4
:10065000012B24BF00F8013B00F801CB48BF00F894
:10066000012B704710B5203AC0F00B80B1E818504C
:10067000203AA0E81850B1E81850A0E81850BFF48C
:10068000F5AF5FEA027C24BFB1E81850A0E818502B
:1006900044BF18C918C0BDE810405FEA827C24BF7F
:1006A00051F8043B40F8043B08BF7047D20728BF0D
:1006B00031F8023B48BF11F8012B28BF20F8023B5C
:1006C00048BF00F8012B70474FF0000200B51346F9
:1006D00094469646203922BFA0E80C50A0E80C5062
:1006E000B1F12001BFF4F7AF090728BFA0E80C5013
:1006F00048BF0CC05DF804EB890028BF40F8042B0C
:1007000008BF704748BF20F8022B11F0804F18BF78
:1007100000F8012B70477047704770472DE9F0478C
:100720000D4699469246044600F124080168880661
:1007300004D5E06921F01001216000E00120A84209
:1007400001DD471B00E00027A1697A1902EB0900CF
:10075000081AA0612078C00602D42046AFF30080BA
:10076000002608E0D4E901211AF806009047206A23
:10077000401C761C20624E45F4DB2078C0060AD56A
:100780002046AFF3008006E0D4E9012130209047F5
:10079000206A401C2062381EA7F10107F4DC07E044
:1007A000D4E9012118F805009047206A401C206216
:1007B000281EA5F10105F3DC2046AFF30080207868
:1007C000000602D50220BDE8F0870120FBE700000B
:1007D00001694A1C02610878704700B58FB0CDE905
:1007E00001310021059105497944CDE903101146F5
:1007F0006846FFF763FE0FB000BD0000E5FFFFFF96
:100800000A6802F8010B0A607047754600F02CF880
:10081000AE4605006946534620F00700854618B0ED
:1008200020B5FFF7ADFDBDE820404FF000064FF0CA
:1008300000074FF000084FF0000B21F00701AC4615
:10084000ACE8C009ACE8C009ACE8C009ACE8C00934
:100850008D46704710B50446AFF300802046BDE8D2
:100860001040FFF717BD00000048704738420020D5
:1008700001491820ABBEFEE7260002007047FEE7E4
:10088000014800F012BB000000010020014800F008
:100890000CBB00000001002070470000F0B50023F1
:1008A00044F2F4564FF000451A4600BF016902EBCE
:1008B000820401EBC4010B604B608B60CB600B6268
:1008C0000D604B624E60D1F804C0032A00EB820732
:1008D0002CF0004CC1F804C0B96406D207694FF08F
:1008E000280C0CEBC4043C4400E00469CC60521CAE
:1008F000042ADBD3C36503668366C3668365016828
:10090000006901F58051C860F0BD70B5A4B006461D
:10091000002401258DF81050A80302948DF8115081
:10092000C1108DF81F408DF804508DF820408DF8CF
:100930001E508DF80F4009948DF828408DF85640D0
:100940008DF81C4012948DF84C4014948DF854404E
:10095000CDE90501694630468DF8554000F084F830
:1009600028048DF870508DF881508DF871508101F8
:100970001E94C2108DF880408DF888508DF872500A
:100980008DF882408DF868501D92239421941F9118
:1009900019A91B9030468DF88950199400F002F87F
:1009A00024B070BD2DE9F0410C4601682D4A054682
:1009B00001F58051237B886900EA0200F3B300222D
:1009C000667B637F920642EA4662C3B30023A67B3E
:1009D000676942EA0352237F42EA4652A67F3A43BE
:1009E000276A42EAC31294F8243042EA86123A4354
:1009F00042EA830202438A61286800F580508669D2
:100A0000012000F003FD286800F5805086612679FA
:100A1000A169A0682369084394F8252043EA466148
:100A2000A36A0843246840EAC210296840EA8300A8
:100A3000204340F4000001F5805101E00EE00FE09A
:100A40000860286800F580500468012000F0DEFC92
:100A5000286800F580500460BDE8F0810122AFE70E
:100A60000123B4E7233FDEF82DE9F0410546087C79
:100A7000414B0C46896800282A68106800EA030088
:100A800069D00023667C002E41EAC35165D0002363
:100A9000E67F94F81EC09B05676943EA0643194345
:100AA000BCF1000F41EA070159D0002394F81CC0A3
:100AB0002779A66941EA433141EA0C3194F82030A4
:100AC000314341EA8726EBB30021E37B94F8287099
:100AD00046EA4121666A41EAC311314341EA0711FE
:100AE0000143116028680668012000F08FFC286827
:100AF0004FF6417706602A6894F84C60A36C216D2C
:100B0000906941EA034138406EB3002394F8557070
:100B1000DE01012F29D0002394F8567046EAC30362
:100B20001943012F23D0002394F85440012C41EAAB
:100B300083011ED05FF0000341EA4301014391614C
:100B4000286800E00DE08469012000F05FFC28685F
:100B50008461BDE8F081012394E7012398E7012334
:100B6000A4E70121B1E70123D0E70123D4E7012362
:100B7000DAE70123E0E700000F8120FF72B6FEE70D
:100B800090F82020012A07D0022A05D0416A41F4BA
:100B90008021416201207047006842690A43426136
:100BA00000207047F0B590F820500468A468012D2B
:100BB00005D0022D03D0416A41F4802162E014F097
:100BC000406F01D1E5005AD50126C4F301644FF40A
:100BD000C075A6401E608B68ABB1CE684F68D0F878
:100BE00000C0334305EB041643EAC7034CF8063054
:100BF00007684FF4C27303EB04130E69FE50097DBE
:100C0000012909D00DE00E88CB68076843EA4653F6
:100C100005EB0416BB51EBE70168CE5846F480762D
:100C2000CE50D3794FF4C6779679117992F805E0D2
:100C300041EA03613B1F4FEA064C066807EB0417C5
:100C40004CEA0E2C41EA0C0103EB0413F151D77866
:100C500092F802C0117892F801E0066841EA076252
:100C60004FEA0C4C4CEA0E273A4305EB0411F250C4
:100C70000068425842F0010242500020F0BD416A33
:100C800041F4001141620120F0BD000030B590F840
:100C900020300268012B07D0022B05D0416A41F4B5
:100CA00080214162012030BD3E4C3F48A24200D02D
:100CB0000246D2F80032824243F00103C2F8003209
:100CC0000CD1D2F8000220F47C50C2F80002D2F815
:100CD00000024B6A40EA0320C2F800020C7D0120AA
:100CE000D2F81C3204F01F04A0408343C2F81C3227
:100CF000CB69B3B9D2F80C328343C2F80C328C8979
:100D00004B684D6964F31F4302EBC504C4F84032DD
:100D10000C890B684D6964F31F4302EBC504C4F8EA
:100D20004432CB69012B16D1D2F80C320343C2F8FE
:100D30000C320C884B684D6964F31F4302EBC50409
:100D4000C4F840320C89CB684D6964F31F4302EB51
:100D5000C504C4F844328B69002BD2F804320FD09A
:100D600053EA0003C2F804320B69002BD2F81432A4
:100D700008D00343C2F81432096A012904D008E0FC
:100D80008343EFE78343F5E7D2F81C120143C2F82F
:100D90001C12D2F8000220F00100C2F8000200206C
:100DA00030BD000000340040006400407047000087
:100DB000F0B590F82040012C05D0022C03D0416AF8
:100DC00041F4802166E0046800295ED02469A4070C
:100DD0005DD005684FF4D87404EB01142D5915F05B
:100DE0000405956005682D5957D0ED08C2F80450E8
:100DF00007684FF4DA754FF4DC7C4FF4DE763C592B
:100E0000002905EB011504F00207D7600CEB011473
:100E100006EB01110668765906F00F0616610668A2
:100E20007659C6F307269661066875594FEA154547
:100E30005561026812591A70026812594FEA12225B
:100E40005A70026812594FEA12429A700268125997
:100E50004FEA1262DA70026852581A7102685258E8
:100E60004FEA12225A71026852584FEA12429A719E
:100E7000026851584FEA1161D971006810D00169B8
:100E800041F0200101610020F0BDE4689FE7416A64
:100E900041F4001141620120F0BD6D0D1560A7E71E
:100EA000C16841F02001C160EDE72DE9F05F054622
:100EB000006800244669D0F804908768D0F80CB028
:100EC000D0F810A0F207D0F8188048D0F90714D055
:100ED00001218160BA0703D5284600F036FA0CE0FC
:100EE000780702D54FF4006407E0380702D54FF4C5
:100EF000805402E0284600F027FAF80516D5286845
:100F0000BA054FF48071816003D5284600F01FFABE
:100F10000CE0780502D544F4005407E0380502D50A
:100F200044F4804402E0284600F010FAF80316D595
:100F30002868BA034FF48031816003D5284600F059
:100F400008FA0CE0780302D544F4004407E03803C3
:100F500002D544F4803402E0284600F0F9F9300765
:100F600007D55FEACB6004D52968102044F40074EB
:100F7000C86070074FF0080707D55FEA0B7004D50B
:100F80002868C760284600F05DF9B00706D52868D4
:100F9000C068800702D0284600F055F9700607D5D2
:100FA0005FEACA6004D52968102044F480640861AF
:100FB000B00607D55FEA0A7004D52868076128469D
:100FC00000F042F9F00606D528680069800702D0D3
:100FD000284600F03BF9B00308D55FEAC96005D5A3
:100FE000296810204860284600F080F9F00307D5F2
:100FF0005FEA097004D528684760284600F0AAF91E
:10100000300446D55FEA497040D5F00504D55FEA63
:10101000C87001D044F00104B00504D55FEA8870BF
:1010200001D544F00204700504D55FEA487001D58B
:1010300044F00404300529D518F0700F26D008F0CC
:101040007000402815D006DC102809D020280AD0CE
:10105000302816D10AE050280ED0602811D10EE0B9
:1010600044F008040DE044F010040AE044F02004C9
:1010700007E044F0400404E044F0800401E044F45C
:1010800080742868816921F07001816129680420D9
:101090004860002C05D0686A204368622846FFF744
:1010A00085FEBDE8F09F70B5040003D094F82000E1
:1010B00010B104E0012070BD204600F081F82068E6
:1010C000016841F00101016000F0DEFB05260546E4
:1010D00004E000F0D9FB401B0A2811D820684068C2
:1010E000C007F6D02068016821F00201016000F01D
:1010F000CBFB05460BE000F0C7FB401B0A2806D9D6
:10110000606A40F40030606284F82060D2E72068B2
:1011100040688007EFD4207E0128206801683DD018
:1011200021F080010160607E01282068016838D0CC
:1011300021F040010160A07E01282068016833D0C1
:1011400021F020010160E07E0128206801682ED096
:1011500041F010010160207F01282068016829D03A
:1011600021F008010160607F01282068016824D017
:1011700021F004010160D4E90110D4E9033265696A
:10118000491E184323682A43104300220843D861AC
:101190000121626284F82010104670BD41F0800188
:1011A000C0E741F04001C5E741F02001CAE721F066
:1011B0001001CFE741F00801D4E741F00401D9E77D
:1011C00010B586B0044614216846FFF77DFA1A4927
:1011D000206888422ED11948016841F000710160F1
:1011E000006800F00070059014481038016841F064
:1011F0000801016000680221002200F0080005904B
:10120000032009238DE80700CDE903030C48694654
:1012100000F010FA00220521142000F0C5FB142074
:1012200000F0B4FB00220521152000F0BDFB1520C5
:1012300000F0ACFB06B010BD006400404038024036
:10124000000C0240704770477047000010B5254CF5
:101250000121254A04F132032160FFF7A9FD08B1FD
:1012600072B6FEE7204A1F4902F1250032311268AA
:10127000B2F5927F16D0B2F59B7F23D0A2F5807392
:10128000773B0ED10A786423827112FB03F34A780C
:10129000C271897802EB8202017203EB42020A44B6
:1012A000A26210BD0A786423027012FB03F34A782D
:1012B0004270897802EB8202817003EB42020A4499
:1012C000226210BD0A786423C27012FB03F34A78CD
:1012D0000271897802EB8202417103EB42020A44F7
:1012E000626210BD000000207802002070470000FC
:1012F00070B5044690F82000012804D0606A40F4DC
:101300000020606218E0022084F820002068016854
:1013100021F00101016000F0B7FA05460EE000BFC0
:1013200000F0B2FA401B0A2808D9616A052041F48E
:101330000031616284F82000012070BD206840689F
:10134000C007EDD1606270BD70477047704770474D
:101350007047704770472DE9F041876D044600F0F3
:1013600093FA064694F835000025022806D080201E
:101370006065012084F83450BDE8F0812068016880
:1013800021F0160101602068416921F0800141616E
:10139000206C08B9A06C20B12068016821F0080118
:1013A00001602068016821F0010101600CE000F09B
:1013B0006BFA801B052807D920216165032084F87A
:1013C000350084F83450D7E720680068C007EED1B4
:1013D00094F85C203F2001219040B86084F83510DB
:1013E000002084F83450C7E790F83510022903D064
:1013F0008021416501207047052180F83510006883
:10140000016821F0010101600020704770B50446B9
:1014100000F03AFA0546601C02D004480078044403
:1014200000F032FA401BA042FAD370BD3C0000200D
:10143000F8B5040003D0D4F8840010B107E001200F
:10144000F8BD2320C4F88400204600F07FF83C4813
:10145000016841F480410160006800F48040009020
:101460003848016821F4000101600168A268114355
:1014700001600068206800F58050016841F00101BA
:10148000016000F001FA4FF4FA7605460CE000BF67
:1014900000F0FAF9401BB04206D90421C4F88810C4
:1014A000E020C4F88400CAE7206800F58050006896
:1014B000C007EDD12046FFF728FA00254FEA0501C5
:1014C000E668032901EB810204EB810306EBC2000D
:1014D000056045608560C5609861036843F48013CA
:1014E000036005D2E368282606EBC2021A4400E036
:1014F000E268C2600268491C042942F440020260AA
:10150000DED3A5622068E16800F5805001612046C5
:10151000FFF7C4F960680C4982880A648278C6784B
:1015200047780378120443EA066042EA0722104330
:1015300048641020C4F88850C4F884000020F8BD26
:10154000443802400438014000800240F0B587B0C2
:10155000044614216846FFF7B7F8304920688842EE
:1015600059D12F48016841F000710160016801F014
:1015700000710591016841F080610160016801F02E
:1015800080610591016841F000610160016801F02E
:1015900000610591016841F004010160016801F0FA
:1015A00004010591016841F001010160016801F049
:1015B00001010591016841F002010160016801F03B
:1015C00002010591016841F04001016000680224B8
:1015D0000025694600F04000059003260B273220C5
:1015E0008DE8F1000F4800F025F8862069468DE867
:1015F000F1000D4800F01EF8200369468DE8F10067
:101600000A4800F017F84FF4205069468DE8F100C1
:10161000074800F00FF807B0F0BD0000008002405E
:10162000303802400008024000000240000402403E
:10163000001802402DE9F84FDFF80CB20124032511
:101640004FF00F0A00220BF1040E00BF0B6804FAE2
:1016500002F63340B34278D10F7907F00307012F28
:1016600001D0022F1AD187684FEA4209D1F80CC085
:1016700005FA09F827EA08070CFA09FC4CEA070CF6
:10168000C0F808C0476891F804C0B743CCF3001C09
:101690000CFA02FC4CEA070CC0F804C00E79F643C1
:1016A000B6070BD0C6684FEA420C8F6805FA0CF8F3
:1016B00026EA080607FA0CF73743C7600E7906F0EA
:1016C0000306022E12D1D6084FEA427800EB8606B6
:1016D00000960F69D6F820904FEAD8660AFA06FC01
:1016E000B74029EA0C063743009E37620F79066837
:1016F0004FEA420C07F0030705FA0CF807FA0CF75B
:1017000026EA0806374307604E6816F4403F1CD0AF
:101710004E4E376847F480473760366822F003083A
:10172000970706F480460096494E3F0F4644B1465F
:10173000D6F80868DFF81C810AFA07FC404526EA5B
:101740000C0603D14FF0000C41E076E0DFF808C151
:10175000604502D14FF0010C39E0DFF800C160456F
:1017600002D14FF0020C32E0DFF8F4C0604502D144
:101770004FF0030C2BE0DFF8ECC0604502D14FF0D6
:10178000040C24E0DFF8E0C0604502D14FF0050C06
:101790001DE0DFF8D8C0604502D14FF0060C16E01E
:1017A000DFF8CCC0604502D14FF0070C0FE0DFF846
:1017B000C4C0604502D14FF0080C08E0DFF8B8C0A3
:1017C000604502D14FF0090C01E04FF00A0C0CFA11
:1017D00007FC4CEA060CC9F808C84F68DBF8006043
:1017E000FF0226EA030600D51E437746CBF80060C9
:1017F000D1F804C0DEF800605FEA8C2C26EA03060C
:1018000000D51E43DFF840C03E60ACF1040C4F68C9
:10181000DCF80060BF0326EA030600D51E430A4F2A
:10182000CCF80060083FD1F804C03E685FEACC3CC9
:1018300026EA030600D51E433E60521C102AFFF420
:1018400005AFBDE8F88F0000083C01404438024075
:101850000030014000000240000402400008024045
:10186000000C024000100240001402400018024028
:10187000001C024000200240002402400AB18161A5
:1018800070470904FBE700000148806870470000CA
:101890003C00002002488168027811448160704752
:1018A0003C000020074810B5016841F480710160D8
:1018B000032000F099F80F2000F006F800F04AF835
:1018C000002010BD003C024030B505461C4887B0E2
:1018D000016841F001010160006806A900F0010003
:1018E000009001A800F006FC00F034FC154900222D
:1018F000154B40F2E734B0FBF1F114480360C0E946
:101900000342491EC0E90112826100F032FE040068
:1019100012D10E4800F060FE04000DD1192000F035
:1019200035F8102D07D200222946192000F03CF886
:101930000748056000E0012407B0204630BD0000E4
:101940004438024040420F0000000140FC040020E7
:10195000400000200C4882B0016841F080510160D5
:10196000006800F0805000900748001D016841F4B5
:1019700080410160006800220F2100F48040009047
:10198000901E02B000F010B840380240002809DB79
:10199000410900F01F028900012001F1E02190407F
:1019A000C1F80001704700000E4BF0B41B680D46F3
:1019B000C3F30223C3F10706042E00D90426191D20
:1019C000072901D2002300E0DB1E012404FA06F1FE
:1019D0009C40491E2940641E994014402143F0BC9C
:1019E00001F007BF0CED00E0064900F0070210B55A
:1019F0004FF6FF040868044B204040EA02201843D9
:101A0000086010BD0CED00E00000FA051848F8B5BC
:101A1000016841F0805101600068164C00F0805070
:101A20000090206840F480302060FFF72DFF4FF4D5
:101A30007A76054605E000BFFFF726FF401BB0425F
:101A40000FD86068C003F7D5206840F400302060EC
:101A5000FFF71AFF054606E0FFF716FF401BB042EE
:101A600001D90320F8BD60688003F5D50020F8BDDA
:101A700040380240007000400248016841F4807123
:101A800001607047007000402DE9F84F044600786F
:101A9000DFF824944FF000063746C0070ED0D9F87F
:101AA000001021F40001C9F80010D9F80010626B91
:101AB0001143C9F80010606B00B90126FE4D206883
:101AC000843500030ED5E16B286820F440100843EC
:101AD0002860E06BB0F5801F01D010B102E0012654
:101AE00000E0012720684FF4800BC0020CD5216C68
:101AF000286820F4400008432860206C584501D134
:101B0000012601E000B901272068C10100D50126A6
:101B1000800666D5E8483830016841F080510160A0
:101B20000068DFF898A300F080500090DAF8001009
:101B300041F48071CAF80010FFF7A6FE804605E068
:101B4000FFF7A2FEA0EB080064287DD8DAF80000B9
:101B5000C005F5D5DFF8608308F16808D8F8000003
:101B600010F440702AD0218E01F44071814225D0BA
:101B7000D8F80010D8F8002021F4407142F48032E7
:101B8000C8F80020D8F8002022F48032C8F80020DD
:101B9000C8F80010D8F80000C0070FD0FFF774FE97
:101BA000824607E0FFF770FEA0EB0A0141F28830A1
:101BB0008142CAD8D8F800008007F3D5206BC0F363
:101BC000012103297ED0D9F8001021F4F811C9F8B9
:101BD0000010228ED8F80010C2F30B021143C8F88F
:101BE00000102078C00607D5286820F08070286093
:101BF0002868A16B084328602188AF4888304904D1
:101C000005D5626E016821F44031114301602188DD
:101C1000090405D5A26E016821F440211143016039
:101C20002168C90305D5E26E016821F44011114312
:101C300001602168890305D5226F016821F4400104
:101C400011430160217800E034E1490605D5626C5A
:101C5000016821F00301114301602178090605D5CF
:101C6000A26C016821F00C01114301602188C905B3
:101C700005D5E26C016821F0300111430160218833
:101C8000890505D5226D016821F0C001114301606D
:101C90002188490505D5626D016821F44071114321
:101CA00001602188090505D5A26D016821F4406114
:101CB000114301602188C90407D5E26D016821F450
:101CC000405100E068E0114301602188890405D596
:101CD000226E016821F440411143016021684902EC
:101CE00005D5A26F016821F0806111430160216870
:101CF0004FF0006A890209D5E26F016821F00061A6
:101D000011430160E16F514500D1012721680A07A5
:101D100000D50127490305D5626F016821F04071A4
:101D2000114301602168090206D5D4F880200168BA
:101D300021F08051114301602168490106D5D4F892
:101D40008420016821F000511143016020680001E6
:101D500006D5D4F88810286820F000700843286061
:101D60002068C00006D5D4F88C10286820F0806068
:101D700008432860DFF84891012E02D020688001D6
:101D80007ED5D9F800004E4620F08060C9F80000EA
:101D9000FFF77AFD80460FE04A4AD9F8003010403C
:101DA00023F4F8120243C9F8002012E7FFF76CFD94
:101DB000A0EB080064287DD830680001F6D42178B3
:101DC0003D487C30C90712D0616B81B9237A6268C3
:101DD0000168D0F800C09201C1F3014142EA01421A
:101DE000CCF3036142EA016141EA037101602168B9
:101DF0000A0303D5E26BB2F5801F04D0C9021AD5DD
:101E0000216C594517D16368016894F80CC00268C9
:101E10009B01C1F3014143EA0141C2F3027241EA6D
:101E20000C6141EA027101602968626A21F01F01B8
:101E3000521E114329602168C90110D5238A6268A6
:101E40000168D0F800C09201C1F3036142EA034285
:101E500042EA0162CCF3027142EA01710160216839
:101E600089010CD56168228A237B94F808C0890116
:101E700041EA024141EA036141EA0C71016000E07C
:101E800011E03168B04641F080613160FFF7FCFC41
:101E9000064604E0FFF7F8FC801B64280AD8D8F84F
:101EA00000000001F6D5E7B3D9F800004E4620F057
:101EB000805009E07BE000000838024000700040DC
:101EC00000380240FFFCFF0FC9F80000FFF7DCFC00
:101ED000074604E0FFF7D8FCC01B642867D83068C9
:101EE000C0438000F6D5216835480A0301D5E26B6E
:101EF0001AB1C9021DD5216CD9B963690168277E61
:101F000002689B01C1F3014143EA0143C2F302713C
:101F100043EA076242EA0171016029686FF0FF033A
:101F200000E04BE0A26A21F4F85103EB02221143D6
:101F300029602168890212D5E16F51450FD1238CA8
:101F40006269016807689201C1F3036142EA0342D2
:101F500042EA0162C7F3027142EA0171016021782D
:101F6000090716D561690268D0F800C08B01277F88
:101F7000C2F30362CCF3014143EA014141EA026149
:101F800041EA077101602868E16A20F440300843A3
:101F90002860306840F080503060FFF775FC0446E0
:101FA00008E000BFFFF770FC001B642802D9032083
:101FB000BDE8F88F3068C0438000F3D40020F7E715
:101FC000883802402DE9F04705000F4663D0444EA3
:101FD000306800F00F00B84209D2306820F00F00DE
:101FE00038433060306800F00F00B84253D12868A1
:101FF0003C4C810712D5400703D5206840F4E050DF
:1020000020602878000703D5206840F460402060F5
:10201000A968206820F0F000084320602878C007F5
:102020002AD0304968680839012810D00968022888
:1020300010D0890700292EDA216821F0030101431D
:102040002160FFF721FC804641F288390DE00968E4
:102050008903EFE78901EDE7FFF716FCA0EB080124
:10206000494502D90320BDE8F0876868216801F07E
:102070000C01B1EB800FEFD1306800F00F00B842D7
:102080000BD9306820F00F0038433060306800F022
:102090000F00B84201D00120E5E72878400705D5B8
:1020A000E968206820F4E0500843206028780007A1
:1020B00006D52869216821F4604141EAC00020600A
:1020C00000F058F82168084AC1F30311515CC84078
:1020D0000649086006480068FFF7F6FB0020C2E7E3
:1020E000003C024008380240B44B00084800002081
:1020F000400000200D4A0F2330B503604FF4E05438
:102100000B4B156805F003054560156805F0F005F3
:102110008560156805F4E055C560126804EAD202CE
:102120000261186800F00F00086030BD08380240F6
:10213000003C02400449054809680068044AC1F3AC
:102140008221515CC8407047083802404800002096
:10215000C44B00080449054809680068044AC1F3F3
:102160004231515CC84070470838024048000020A6
:10217000C44B0008154910B51548096811F00C0248
:1021800013D04110042A0FD0082A0ED10F4C241F5F
:102190002268236802F03F025B0207D52068C0F383
:1021A0008810A0FB010106E0084610BD2168C1F3BC
:1021B0008811A1FB00010023FEF7F4F82168C1F3A8
:1021C0000141491C4900B0FBF1F010BD0838024044
:1021D0000024F4002DE9F84F04004FF000076ED002
:1021E0002078DFF87CA3AAF10408C007A8F1040551
:1021F0004CD0DAF800105046C1F38101012908D013
:102200000068C0F3810002280AD1D8F8000040021B
:1022100006D52868800339D560680028DFD035E00E
:102220006068B0F5803F0BD010B1B0F5A02F11D091
:10223000286820F480302860286820F4802002E09C
:10224000286840F480302860606890B1FFF71CFB7C
:1022500006460AE0286840F480202860F0E700BFC6
:10226000FFF712FB801B642872D828688003F7D51B
:102270000CE0FFF709FB064605E000BFFFF704FB93
:10228000801B6428F0D828688003F7D42078800762
:1022900042D5DAF80010504611F00C0F08D0006853
:1022A000C0F3810002280BD1D8F80000400207D407
:1022B0002868800718D5E068012800D114E04AE1B9
:1022C000E0680028286817D040F001002860FFF778
:1022D000DBFA064605E000BFFFF7D6FA801B0228AE
:1022E000C2D828688007F7D52069296821F0F8014D
:1022F00041EAC00028600FE020F001002860FFF7ED
:10230000C3FA064605E000BFFFF7BEFA801B0228AD
:102310001ED828688007F7D42078000729D5904870
:1023200061696C3000298146016812D041F00101D9
:102330000160FFF7A9FA064605E000BFFFF7A4FA1F
:10234000801B022804D8D9F800008007F6D510E0D9
:1023500089E021F001010160FFF796FA064604E0EA
:10236000FFF792FA801B02287DD8D9F80000800779
:10237000F6D4207840076BD5DFF8E49109F13809ED
:10238000D9F80000C0000BD4D9F8001041F08051FA
:10239000C9F80010D9F80000012700F08050009023
:1023A00070480168C90512D40168834641F4807100
:1023B0000160FFF769FA064605E000BFFFF764FA1F
:1023C000801B64284FD8DBF80000C005F6D5644EAA
:1023D000A068683601280AD008B1052811D03068F5
:1023E00020F001003060306820F0040002E0306826
:1023F00040F001003060A068A0B1FFF745FA8346C5
:102400000CE0306840F004003060F0E7FFF73CFA81
:10241000A0EB0B0141F28830814268D83068800718
:10242000F4D50EE0FFF730FA834607E0FFF72CFA09
:10243000A0EB0B0141F28830814258D83068800708
:10244000F4D42FB1D9F8001021F08051C9F8001050
:10245000A069E0B3DAF80010C1F3810102294DD080
:102460000228286800E042E020F08070286003D055
:10247000FFF70AFA04463DE0FFF706FA064604E0D5
:10248000FFF702FA801B022831D828688001F7D4B0
:10249000D4E90921DFF8D0C0D4E9070694F8303038
:1024A0004F0894F82C1030430CEB074444EA821296
:1024B000104340EA016040EA0370C8F80000286851
:1024C00040F080702860FFF7DFF9044605E044E043
:1024D000FFF7DAF9001B022809D828688001F7D530
:1024E0003BE000BFFFF7D0F9001B022802D9032010
:1024F000BDE8F88F28688001F4D42EE00128D8F8D0
:10250000000028D0E16900F480028A4223D1216AC8
:1025100000F03F028A421ED1626A47F6C071014054
:10252000B1EB821F17D1A16A4FF0FF3200F44033A4
:1025300002EB5101B3EB014F0DD194F82C1000F0D8
:102540007062B2EB016F06D194F8301000F0E040F9
:10255000B0EB017F01D00120CAE70020C8E70000EE
:1025600008380240007000400000FFFF70477047CD
:10257000704710B5040003D094F83D0010B107E097
:10258000012010BD002084F83C00204600F022F815
:10259000022084F83D002068211D00F07BFD012011
:1025A00084F8480084F83E0084F83F0084F8400036
:1025B00084F8410084F8420084F8430084F8440021
:1025C00084F8450084F8460084F8470084F83D000C
:1025D000002010BD7047000090F83D10012901D087
:1025E00001207047174A022180F83D100168CB682E
:1025F00043F00103CB600068904214D0B0F1804FEB
:1026000011D0114988420ED0104988420BD0104990
:10261000884208D00F49884205D00F49884202D02D
:102620000E49884207D181680D4A1140062906D01B
:10263000B1F5803F03D0016841F001010160002045
:102640007047000000000140000400400008004006
:10265000000C004000040140004001400018004010
:1026600007000100704770B5044600680025016945
:10267000C943890715D4C168C943890711D4EA1E23
:10268000026101212177206880698007204602D0FD
:10269000FFF7E8FF04E000F0A7F8204600F0A5F8F7
:1026A000257720680169C943490717D4C168C94320
:1026B000490713D402216FF00402026121772068D8
:1026C000806910F4407F204602D0FFF7CBFF04E082
:1026D00000F08AF8204600F088F825772068016924
:1026E000C943090716D4C168C943090712D4042194
:1026F0006FF00802026121772068C06980072046D8
:1027000002D0FFF7AFFF04E000F06EF8204600F0C3
:102710006CF8257720680169C943C90617D4C168D8
:10272000C943C90613D408216FF010020261217752
:102730002068C06910F4407F204602D0FFF792FF66
:1027400004E000F051F8204600F04FF825772068AB
:102750000169C943C90708D1C168C943C90704D180
:10276000891E0161204600F041F820680169C943D3
:10277000090609D4C168C943090605D46FF0800170
:1027800001612046FFF7F3FE20680169C943C905CE
:1027900009D4C168C943090605D46FF48071016189
:1027A0002046FFF7E3FE20680169C943490609D4C2
:1027B000C168C943490605D46FF040010161204654
:1027C00000F01EF820680169C94389060BD4C1686E
:1027D000C943890607D46FF0200101612046BDE896
:1027E0007040FFF7C5BE70BD704770470068034971
:1027F000884201D1FFF74EB8704700000000014049
:1028000070477047704770472DE9F0410268002516
:10281000044640F60F070226D069116893683842D3
:1028200005D187067ED58F067CD5A16E2BE1DFF81A
:1028300084C203F0010701EA0C0C57EA0C0C71D0BA
:102840005FEAC07C0CD05FEAC15C09D54FF0010C97
:10285000C2F820C0D4F8842042F00102C4F88420D9
:10286000820709D5DA0707D022681662D4F88420D7
:1028700042F00402C4F8842042070AD5DA0708D0DF
:10288000236804221A62D4F8842042F00202C4F8B9
:10289000842002070CD501F020023A4308D02368B7
:1028A00008221A62D4F8842042F00802C4F8842076
:1028B00002050BD54A0109D523684FF400621A625C
:1028C000D4F8842042F02002C4F88420D4F8842074
:1028D000002A36D0800605D5880603D5A16E09B139
:1028E000204688472168D4F884008968490602D4C4
:1028F00010F0280F27D0204600F0D0FC2068806818
:1029000040061BD52068083050E8001F21F0400128
:1029100040E80012002AF5D1606F78B16649016580
:10292000606F00E015E0FEF75FFD002809D0606FE2
:10293000016D00E02046BDE8F04108472046FFF762
:1029400062FFBDE8F0812046FFF75DFFC4F88450C8
:10295000F7E7D4F860C02027BCF1010F7ED15FEA11
:10296000C06C7BD55FEAC16C7DD5102010622068F9
:102970008068400643D5616F086840680004000C19
:10298000DFD0B4F858208242DBD9A4F85A00C869D5
:10299000B0F5807F2BD0216851E8000F20F48070C3
:1029A00041E80002002AF6D12068083050E8001FF4
:1029B00021F0010140E80012002AF5D1206808301A
:1029C00050E8001F21F0400140E80012002AF5D134
:1029D000C4F880702566216851E8000F20F01000CF
:1029E00041E80002002AF6D1606FFEF7B4FC66668B
:1029F000B4F85800B4F85A10401A81B22DE0B4F877
:102A00005800B4F85A10B4F85A20401A81B2002A7B
:102A100097D0002995D0226852E8000F20F49070DA
:102A200042E80003002BF6D1206800F1080050E8CE
:102A3000002F22F0010240E80023002BF4D1C4F85B
:102A400080702566A566226852E8000F20F010000D
:102A500042E80003002BF6D1666600E003E0204662
:102A6000FFF7CFFE6DE7C60208D55B0206D54FF42F
:102A7000801010622046FFF7C5FE62E7020606D509
:102A80000A0604D5E16E00297FF454AF59E74006E9
:102A9000E8D54806E6D52046026852E8001F21F036
:102AA000400142E80013002BF6D1C767C56600F06D
:102AB0001AF946E7200100048932000810B5040025
:102AC00002D0E06F10B107E0012010BD002084F8B3
:102AD0007800204600F026F82420E067206801688E
:102AE00021F001010160204600F0A2FC0128ECD099
:102AF000606A10B1204600F033FB2068416821F481
:102B0000904141602068816821F02A01816020683D
:102B1000016841F0010101602046BDE8104000F06D
:102B200083BB000010B5AAB00446142124A8FDF709
:102B3000CBFD90216846FDF7C7FD1D4920688842FE
:102B400033D180150090002468461394FEF79CFF53
:102B500008B1FEF713F81748016841F480210160BD
:102B6000006800F48020299012481038016841F074
:102B70000801016000680DF1900C022100F00800CE
:102B800029904FF4407007238CE8130003220A4871
:102B9000CDE9272324A9FEF74DFD0022052127209A
:102BA000FEF702FF2720FEF7F1FE2AB010BD00005D
:102BB0000048004040380240000C024030B4D0F8D9
:102BC0008030202B02D0022030BC704791B18AB1F6
:102BD0000023036603685B681B0208D5046854E899
:102BE000003F43F0806344E80035002DF6D130BC4F
:102BF00000F036BD0120E7E7114800F2DB11027852
:102C0000303A0A704278303A4A708278303A8A70A4
:102C10000279303ACA704279303A0A718279303A90
:102C20004A71027A303A8A71427A303ACA71807AAD
:102C30003038087202490C2201F21F10FFF7BEBFA4
:102C4000B90000202DE9F8430446C06F1F46164620
:102C50000D46202802D00220BDE8F8838DB186B150
:102C60000020C4F884002121E167FEF70DFE8046B4
:102C7000A068A4F85060A4F85260B0F5805F02D05C
:102C800003E00120E8E7206910B12E46002510E09E
:102C900000260EE08021204600F03EFDB8B9C6B106
:102CA00016F8010B21688862B4F85200401EA4F89F
:102CB0005200B4F8520043464FF00002009700283B
:102CC000E8D14FF04001204600F026FD38B1032046
:102CD000C2E735F8020B2168C0F30800E3E72020C3
:102CE000E0670020B8E77047FEE7000017484FF4A0
:102CF000803210B50024144B18218AB00360C0E95B
:102D00000114C0E903424461047644768476C476B3
:102D100004774477FEF7C7F908B172B6FEE70120E1
:102D20000890122205924FF412510291CDE900143D
:102D3000CDE90340CDE906400448282369460993BC
:102D4000FDF7A4FF0AB010BD0064004000010020A0
:102D500016498023164870B5134A00240A60E125FD
:102D600004701E04437040F2F4528570C470047104
:102D70004471C1E901060F48C8600F48C1E9040267
:102D80000846FEF755FB08B172B6FEE70748382142
:102D90006038FDF799FC054821224FF44001603866
:102DA0000260C0E9044170BD00800240280100209B
:102DB0002C000020A0C0072000C007202DE9F04112
:102DC00086B014216846FDF77FFC3F48016841F05A
:102DD00004010160016801F004010591016841F0FE
:102DE00080010160016801F080010591016841F0F6
:102DF00001010160016801F001010591016841F0E4
:102E000002010160016801F002010591016841F0D1
:102E100008010160016801F008010591016841F0B5
:102E200040010160006844F28106284F002200F052
:102E30004000314605903846FEF720FDDFF89080CF
:102E4000002240214046FEF719FD00244FF40050B7
:102E50004FF488118DE813001E486946FEF7EAFB1F
:102E600001250096CDE90154694638460394FEF7E2
:102E7000E1FB40200090CDE90154694640460394AF
:102E8000FEF7D8FB80206946CDE900044046029455
:102E9000FEF7D0FB0221104D4FF4E8500A238DE8D5
:102EA000130003226946CDE903232846FEF7C2FB3F
:102EB00068156946CDE9000428460294FEF7BAFB7E
:102EC00006B0BDE8F0810000303802400004024046
:102ED0000018024000080240000002400C48002197
:102EE00010B50A4C0C220B4B0460C0E90131C160E3
:102EF000C0E904128161C16101624162FFF7DEFD38
:102F0000002801D072B6FEE710BD00000048004066
:102F1000D801002080841E00FEE7FEE742F6E06450
:102F200000F078FC204600F088FDF9E743F2B06439
:102F3000204600F082FDFBE708B50F4C00254FF658
:102F4000FF762068012812D1A06A0CA100901448D5
:102F5000D4E90823FDF79EFA1148FDF71FFB10493D
:102F600082B2334601F59670FFF76CFE2560C820EB
:102F700000F063FDE5E70000000000200A666565DB
:102F8000646261636B3D3E202020202020202020B1
:102F9000202325692C2025692C20256900000000AC
:102FA000AC000020502010B572B680F31188BFF33A
:102FB0004F8FBFF36F8F62B601F072FC18B10449F6
:102FC0004FF080500860002080F3118810BD000091
:102FD00004ED00E030B593B034216846FDF774FB92
:102FE00014210DA8FDF770FBFEF746FD204801688F
:102FF00041F080510160006800F0805012901D483F
:10300000016821F4404141F48041016000680224DC
:10301000602500F440401290042001210305820342
:10302000CDE90805CDE90643CDE90A40CDE9001216
:1030300068460C94FFF7CEF808B172B6FEE7FEF7CB
:10304000E5FC08B172B6FEE74FF4805200200F2174
:10305000CDE90F0211900DA8CDE90D140321FEF763
:10306000B1FF002801D072B6FEE713B030BD0000FA
:1030700040380240007000400248016841F470018D
:103080000160704788ED00E00148FFF7ECBA0000EE
:10309000FC040020F0B5274B4FF0804E264D02680F
:1030A0009842264E264F274C09D0704507D0A8429B
:1030B00005D0B04203D0B84201D0A04205D1D1F82A
:1030C00004C022F070024CEA020298421BD0704504
:1030D00019D0A84217D0B04215D0B84213D0A042A0
:1030E00011D0194DA8420ED0184DA8420BD0184D42
:1030F000A84208D0174DA84205D0174DA84202D0CB
:10310000164DA84203D1CD6822F440722A434D697E
:1031100022F080022A43026098428A68C2620A68EA
:10312000826201D0A04201D109690163012141619C
:10313000F0BD000000000140000400400008004015
:10314000000C0040000401400040014000440140E8
:103150000048014000180040001C004000200040D2
:1031600090F82410C90706D00168836A4A6822F4DF
:1031700000321A434A6090F82410890706D5016886
:10318000C36A4A6822F480321A434A6090F82410D5
:10319000490706D50168036B4A6822F480221A4366
:1031A0004A6090F82410090706D50168436B4A6805
:1031B00022F400421A434A6090F82410C90606D54A
:1031C0000168836B8A6822F480521A438A6090F8FF
:1031D0002410890606D50168C36B8A6822F4005260
:1031E0001A438A6090F82410490611D50168036CCF
:1031F0004A6822F480121A434A60016CB1F5801FBC
:1032000006D10168436C4A6822F4C0021A434A603E
:1032100090F82410090606D50168826C486820F4ED
:103220000020104348607047F8B500250446C0F8F8
:103230008450FEF729FB064620686FF07E47006841
:10324000000708D5002233464FF4001120460097AE
:1032500000F062FA60B92068006840070AD50022D1
:1032600033464FF480012046009700F055FA08B12C
:103270000320F8BD2020E067C4F88000256665665D
:10328000002084F87850F8BD10B5806B0021A0F8BC
:103290005A10A0F85210FFF7B6FA10BD016851E8B5
:1032A000002F22F4907241E80023002BF6D1016830
:1032B000083151E8002F22F0010241E80023002BE1
:1032C000F5D1016E012908D1026852E8001F21F0F2
:1032D000100142E80013002BF6D100212022C0F893
:1032E000802001668166704710B5D0F88010B0F874
:1032F0005C202229016804D0886940F008008861B8
:1033000010BD496A436D11401980416D891C4165AA
:10331000B0F85A10491EA0F85A10B0F85A100029F7
:10332000EED1016851E8002F22F4907241E80023A9
:10333000002BF6D10168083151E8002F22F001027C
:1033400041E80023002BF5D100212022C0F8802085
:103350004166026E8166012A02D0FFF74DFC10BD66
:103360000166026852E8001F21F0100142E80013D4
:10337000002BF6D10168CA69D243D20601D41022CB
:103380000A62B0F85810FFF73CFA10BD10B5D0F83B
:103390008010B0F85C202229016804D0886940F0D0
:1033A0000800886110BD496A436D11401970416D74
:1033B000491C4165B0F85A10491EA0F85A10B0F8DF
:1033C0005A100029EED1026852E8001F21F49071D2
:1033D00042E80013002BF6D10168083151E8002FB4
:1033E00022F0010241E80023002BF5D10021202228
:1033F000C0F880204166026E8166012A02D0FFF784
:10340000FBFB10BD0166026852E8001F21F01001AD
:1034100042E80013002BF6D10168CA69D243D206F4
:1034200001D410220A62B0F85810FFF7EAF910BD73
:103430002DE9F04104460368C2698168D4E904506B
:10344000DFF8F0C17C4E29431F68002510437B4AFA
:10345000014307EA0C070F431F604FF40040216847
:10346000E7684B6823F440533B434B602768A369EC
:10347000216AD7F808C019432CF430630B43BB60B2
:103480002168B1420AD1116811F0030152D001291B
:103490007CD0022971D003296ED184E0684B994217
:1034A0000AD1116811F00C0167D0042965D00829F0
:1034B00075D00C2960D176E0624B99420AD111682F
:1034C00011F0300159D010296BD0202967D0302954
:1034D00052D168E05C4B99420AD1116811F0C001E9
:1034E0004BD040295DD0802959D0C02944D15AE021
:1034F000564B99420DD1116811F440713DD0B1F590
:10350000807F4ED0B1F5007F49D0B1F5407F33D1F7
:1035100049E04F4B99420FD1116811F4406109D035
:10352000B1F5806F3DD0B1F5006F38D0B1F5406F87
:1035300022D138E0012120E0464B99420DD111689B
:1035400011F4405119D0B1F5805F2AD0B1F5005F78
:1035500025D0B1F5405F0FD125E03F4B99420BD10B
:10356000116811F4404108D0B1F5804F19D0814263
:1035700015D0B1F5404F16D01021E369374A4FF608
:10358000EF7683422ED1092949D201E009E006E015
:10359000DFE801F00B0E11451345454516000221E9
:1035A000EBE70421E9E70821E7E7FEF7C3FD06E0C2
:1035B000FEF7D0FD03E0104602E0FEF7DBFD78B336
:1035C0006168400000EB5100B0FBF1F0A0F1100188
:1035D000B14224D84FF6F0732168C0F3420218407C
:1035E000104320E009291AD2DFE801F005080B1981
:1035F0000D1919191000FEF79DFD06E0FEF7AAFD52
:1036000003E0104602E0FEF7B5FD48B1616800EB4B
:103610005100B0FBF1F0A0F11001B14201D9012538
:1036200002E0216880B2C8600020A066E0662846FB
:10363000BDE8F081F369FFEF0010014090380240CF
:103640000044004000480040004C00400050004052
:103650000014014000780040007C00400024F40089
:1036600030B58368002441654FF48055A0F8582098
:10367000AB42A0F85A204FF0FF01846604D10269E2
:1036800072BB40F2FF112BE04FF07F0233B3B3F176
:10369000805F28D0A0F85C402221C0F88440C0F8A8
:1036A00080100168083151E8002F42F0010241E822
:1036B0000023002BF5D18168A94201D10169C9B16C
:1036C000134902698166BAB1016851E8002F42F4DA
:1036D000907241E80023002BF6D116E0036933B95C
:1036E000A0F85C10D8E7016909B13F21F8E7A0F81C
:1036F0005C20D1E707498166026852E8001F41F06B
:10370000200142E80013002BF6D1002030BD00005C
:103710008D330008E93200082DE9F0479A46174634
:103720000E460446089D4FF000094FF020084CE07B
:10373000681C4AD0FEF7A8F8A0EB0A00A8422AD8D5
:103740004DB32068016849073FD5C069C0430005F3
:103750003BD421684FF400600862216851E8000FF3
:1037600020F4D07041E80002002AF6D12068083029
:1037700050E8001F21F0010140E80012002AF5D1B5
:10378000C4F87C8084F87890C4F88080C4F8848081
:103790000320BDE8F087206850E8001F21F4D071B5
:1037A00040E80012002AF6D12068083050E8001FD7
:1037B00021F0010140E80012002AF5D1C4F87C8014
:1037C00084F87890C4F88080E2E72068C06936EA1F
:1037D000000004D00020B842AAD00020D9E7012080
:1037E000F9E700000148FFF70FB80000D8010020FA
:1037F000FEE7090700284FEA116104DB00F1E02031
:1038000080F80014704700F00F0000F1E02080F80D
:10381000141D70472DE9F05F4FF4FA70FDF7F6FDC7
:10382000494C00254FF004084FF0030901262246B9
:10383000A2F13401454B2570A1F5B07084F80180E8
:10384000A57084F8039026716571A571E5712572E4
:10385000FDF7A8F94FF4FA60FDF7D8FD4FF0090B1A
:1038600084F801B0A5704FF0080AE670062084F8CD
:1038700004A0224665710527A071A2F13401E77109
:10388000A1F5B070314B2572FDF78CF94FF4FA6059
:10389000FDF7BCFD2670224684F801A0A2F1340198
:1038A000A570A1F5B070E57084F804806771A5710A
:1038B000E571264B2572FDF775F94FF4FA60FDF7B7
:1038C000A5FD2570224684F801B0A2F13401A5704F
:1038D000A1F5B070E67084F804A0657184F80690D4
:1038E000E7711A4B2572FDF75DF94FF4FA60FDF7A9
:1038F0008DFD2570062184F801802246A57084F88C
:10390000039026716571A171A2F13401E771A1F5EF
:10391000B0700E4B2572FDF745F94FF4FA60FDF7D4
:1039200075FD65702246A570A2F13401E570A1F520
:10393000B07084F804806771A571E5712572BDE8E7
:10394000F05F024BFDF72EB9940200201C0000200E
:103950009CB0FDF7A7FFFFF73DFBFFF72FFAFFF73E
:10396000F7F9FFF7BBFAFFF7C1F90024159415A882
:10397000169400F06EF8294D0121286117A81794BC
:10398000189400F06EF86861012119A819941A942E
:1039900000F067F822491C22A8616846FCF762FE25
:1039A0000021684600F07CF81D491C22686007A8C9
:1039B0001C31FCF757FE002107A800F071F81849E8
:1039C0001C22A8600EA83831FCF74CFE00210EA87E
:1039D00000F066F8E8601348FDF78AFC11481021F2
:1039E000FDF7CEF810480A2203234FF6FE7102615C
:1039F00000F1180213618460C460016004754460C2
:103A00008838FFF75BF807490C22473901F21F108D
:103A1000FFF7D4F800F018F8FEE7000000000020DF
:103A2000604B00080001002060020020842801464D
:103A30004FF0000000D0C81C704710B500B901203D
:103A400000F0E6FB002010BD10B500F031FC0020B6
:103A500010BD41684FF0010009B100F004BD00F055
:103A6000F7BC38B543684BB1012909D10320009058
:103A700000220120114600F029FD38BD012901D0A6
:103A8000002038BD03220021012000F0F9FC0400D1
:103A900004D000231A46194600F0A0FD204638BD88
:103AA0007FB50D4641690446B0F9080081B1A169AE
:103AB00071B1FFF7BBFFD4E905122B468DE8070073
:103AC0002269D4E9001000F0AEFE039004B070BD8E
:103AD000FFF7ACFF03A92B46CDE90001228AD4E908
:103AE000001092B200F072FE012801D00020EDE734
:103AF0000398EBE72DE9F041184C0F46054666693F
:103B00002068001D00F0B4FA38B922680121A069CC
:103B100092F82C2091408843A061681C07D137B1EE
:103B20002168BDE8F0410E48091D00F0E7BA2068A1
:103B30003544B5424560216805D2A068091DBDE83D
:103B4000F04100F0C3BA6068091D00F0BFFA206BB5
:103B5000854200D22563BDE8F08100004C000020C2
:103B6000240600202DE9F041054600F0D3FA2E4C42
:103B70002E4F2069401C2061206810B1E06940B3DD
:103B80002DE025602069012829D1002606EB86005A
:103B900007EB800000F08CFA761C072EF6D3234842
:103BA0008C3000F085FA2148A03000F081FA1F48DF
:103BB000B43000F07DFA1D48C83000F079FA1B4897
:103BC000DC3000F075FA19488C3060601430A06069
:103BD00005E0E86A2168C96A814200D825600120B1
:103BE000E16A491CE162E96AA26988401043A06168
:103BF00001EB8100291D07EB800000F07FFA00F047
:103C0000ADFAE06900280CD02068E96AC06A8842F1
:103C100007D207494FF080500860BFF34F8FBFF3C2
:103C20006F8FBDE8F08100004C00002048050020A7
:103C300004ED00E02DE9F041856B1746026C044667
:103C4000002682B1C7B1E068FCF7C7FCE168206CD0
:103C50002268091AE160914202D2A168081AE06064
:103C6000022F16D017E02068A8B9A06800F07EFEE9
:103C700006460020A0600EE06068FCF7AEFCD4E9C8
:103C80000101226C10446060884204D320686060A7
:103C900001E005B16D1E6D1CA5633046BDE8F081E5
:103CA00010B5044690F8510068B101280ED00228E2
:103CB00011D0502072B680F31188BFF34F8FBFF33D
:103CC0006F8F62B6FEE7206B00F05EFA2046BDE81B
:103CD000104000F059BA10BD11484FF4705110B5A2
:103CE000420706D00E49C01D20F00700411AC1F559
:103CF00070510C4C002301440839A4F1100221F04A
:103D00000701C4E900030C1A11604B600B60C0E9A5
:103D1000001494604FF000415460D16010BD000069
:103D20003806002098000020144E4FF08058144CA4
:103D3000DFF85090A6F1C80712E000BF00F0EAF9E2
:103D4000F068C568281D00F093F92069401E2061C5
:103D5000E068401EE06000F001FA2846FFF7A0FF8F
:103D6000E0680028EAD138680128F9D9C9F800804C
:103D7000BFF34F8FBFF36F8FF2E7000010060020F4
:103D80004C00002004ED00E0002807D000218160F5
:103D900001600B460A46C16000F020BC7047034634
:103DA000009829B10260C0E90F31012100F0CABBBF
:103DB0000060F8E72DE9F0479A4681466FF003036B
:103DC000DDE9098403EB8202089E206B104420F099
:103DD0000707780709D0502072B680F31188BFF327
:103DE0004F8FBFF36F8F62B6FEE74FF0000561B1F2
:103DF000002023180A5C83F834200A5C12B1401CAE
:103E00001028F6D384F8435001E084F83450072E8C
:103E100000D30626E662201DC4E9116500F053F9BF
:103E200004F1180000F04FF9E564C6F10700A06145
:103E300084F850505246246149463846646200F086
:103E4000FFF8B8F1000F206001D0C8F80040BDE8CD
:103E5000F087000030B5114900E011460A6882423F
:103E6000FBD34B685C18844203D144680846234462
:103E70004B6043681D18954209D1084C103C2468DA
:103E8000A24209D052681A4442600A68126802606D
:103E9000814200D0086030BD0460F9E7980000203E
:103EA00006484168096829B14168C968C968496814
:103EB000016370474FF0FF31FAE700004C0000202B
:103EC0000A484068401C4FF0500072B680F31188D9
:103ED00005D0BFF34F8FBFF36F8F62B6FEE7BFF31E
:103EE0004F8FBFF36F8F62B6FEE70000A000002087
:103EF0002DE9F041044600F00DF994F9455004F124
:103F0000240609E0606A48B1304600F083FD08B13C
:103F100000F0AEF96D1E6DB2002DF3DC4FF0FF36F0
:103F200084F8456000F01AF900F0F4F894F9445070
:103F300004F1100709E0206948B1384600F06AFD35
:103F400008B100F095F96D1E6DB2002DF3DC84F818
:103F50004460BDE8F04100F001B900002DE9F041F6
:103F60000027044600F0DCF9344E306808B9FFF74A
:103F7000B3FEF06804424FD1E4B30834600710D0B8
:103F800004F00700C0F108000444600709D0502085
:103F900072B680F31188BFF34F8FBFF36F8F62B695
:103FA000FEE73CB37068844236D82448103001469E
:103FB0000D6801E028460D466968A14202D22968D1
:103FC0000029F7D131688D4226D007682968016041
:103FD00008376868011B102911D9281942070AD02F
:103FE000502072B680F31188BFF34F8FBFF36F8FED
:103FF00062B6FEE710E041606C60FFF72BFF696876
:104000007068401A7060B268904200D2B0600020C0
:10401000F2681143C5E9000100F038FD780709D0C6
:10402000502072B680F31188BFF34F8FBFF36F8FAC
:1040300062B6FEE73846BDE8F08100008800002047
:1040400070B5041F094E231F4FF0807521F0010148
:1040500025601C1F1960A0F120010B1F2660443849
:104060000A606FF002051D6070BD0000C13E0008CF
:10407000D0E9013201699A60D0E901235A604A68A7
:10408000824201D182684A60002202610868401EB3
:10409000086008687047000010B5044C8023046075
:1040A00004F154000860136010BD0000A802002055
:1040B0004FF0FF3300F108010022C0E90113026054
:1040C000C1600161704700210161704730B50B6824
:1040D0005A1C02D000F1080202E0026904E0224604
:1040E000546825689D42FAD953684B6099608A608C
:1040F000516008610168491C016030BD42684A6036
:1041000093688B6093685960916008610168491CED
:1041100001607047502072B680F31188BFF34F8F53
:10412000BFF36F8F0B4962B64868401C4860012896
:104130000ED10948006810F0FF0F09D0502072B668
:1041400080F31188BFF34F8FBFF36F8F62B6FEE726
:1041500070470000A000002004ED00E00949486815
:1041600028B1401E486001D180F31188704750206B
:1041700072B680F31188BFF34F8FBFF36F8F62B6B3
:10418000FEE70000A000002070B500282BD0164DDF
:10419000A0F108046068E968084209D1502072B6AD
:1041A00080F31188BFF34F8FBFF36F8F62B6FEE7C6
:1041B00022684AB1502072B680F31188BFF34F8F46
:1041C000BFF36F8F62B6FEE78843606000F0A8F827
:1041D00060686968084468602046FFF73BFEBDE8F8
:1041E000704000F053BC70BD880000204FF0E0200C
:1041F000002101614FF47A72816107230349096844
:10420000B1FBF2F1491E4161036170474800002093
:10421000020010B516D01048806B48B1502072B61D
:1042200080F31188BFF34F8FBFF36F8F62B6FEE745
:1042300000F076F800211046FFF75CFC00F026FC49
:10424000002807D105494FF080500860BFF34F8F19
:10425000BFF36F8F10BD00004C00002004ED00E0A4
:1042600002498A6A02604969416070474C00002037
:1042700001490120486270474C00002010B50C46EF
:1042800050B10A4909681831FFF720FF2046BDE800
:1042900010400121FFF72EBC502072B680F3118828
:1042A000BFF34F8FBFF36F8F62B6FEE74C00002065
:1042B00010B586B0002405AA04A9039403A80494A9
:1042C000FFF7EAFEDDE9030100940023CDE90110C8
:1042D00011480FA1059A00F0A6FA1049002848637A
:1042E00013D0502072B680F31188BFF34F8FBFF305
:1042F0006F8F62B601224FF0FF300863CA614C61D4
:1043000006B0BDE8104000F043B806B010BD000094
:1043100049444C4500000000293D00084C000020A5
:104320000248816B491C8163704700004C000020EB
:104330001548816B11B10121416270470021416232
:1043400012498269B2FA82F2C2F11F0202EB8202C2
:1043500051F822306BB101EB820101F108034A6888
:1043600052684A609A4201D152684A60D16801603D
:104370007047502072B680F31188BFF34F8FBFF3A0
:104380006F8F62B6FEE700004C0000204805002059
:104390002B49FF201CB50A780192087008788DF827
:1043A00000009DF800209DF8000002F0F00282421B
:1043B00009D0502072B680F31188BFF34F8FBFF33E
:1043C0006F8F62B6FEE79DF8002007201D4C02F0BB
:1043D00050022270A06005E09DF8002052008DF888
:1043E0000020401E9DF800201206F5D40328A0608E
:1043F00009D0502072B680F31188BFF34F8FBFF3FE
:104400006F8F62B6FEE74FF44070A06001980870AD
:104410000D48016841F470010160016841F070418C
:104420000160FFF7E3FE00206060FBF75DFF0748D7
:10443000016841F040410160FBF742FF00201CBDD4
:1044400000E400E0A000002020ED00E034EF00E0F8
:1044500000210246012010B500F012F80446FFF7D3
:1044600093FC204610BD38B500220B461146009043
:10447000012000F02BF80446FFF786FC204638BDEB
:10448000F8B5050017460E4614D0EEB105FB06F050
:104490004830FFF763FD04000AD0002084F846008E
:1044A00004F148023B46314628460094FFF777FC6A
:1044B0002046F8BD502072B680F31188BFF34F8FAD
:1044C000BFF36F8F62B6FEE70020E1E7F8B5069D07
:1044D00018B163B1FAB1A1B128E0502072B680F3EF
:1044E0001188BFF34F8FBFF36F8F62B6FEE7502086
:1044F00072B680F31188BFF34F8FBFF36F8F62B630
:10450000FEE7502072B680F31188BFF34F8FBFF3E0
:104510006F8F62B6FEE749B1502072B680F3118802
:10452000BFF34F8FBFF36F8F62B6FEE748241C4680
:10453000012683F8466000932B46FFF730FC2046A7
:10454000F8BD00002DE9F04704008A4629D0FFF7A6
:10455000E1FD21680025D4E90F23D4F840C004F11F
:10456000100810460E46401E4FF0FF3902FB0312A2
:1045700000FB0C10BAF1000FA563666084F844904C
:1045800084F84590C4E9022015D04046FFF790FD1D
:1045900004F12400FFF78CFDFFF7E0FD0120BDE8EA
:1045A000F087502072B680F31188BFF34F8FBFF3AE
:1045B0006F8F62B6FEE720690028EDD0404600F01C
:1045C00029FA0028E8D004494FF080500860BFF372
:1045D0004F8FBFF36F8FDFE704ED00E02DE9FF475A
:1045E00004001D4682B08A464FF0000803D0BAF19D
:1045F000000F0AD015E0502072B680F31188BFF387
:104600004F8FBFF36F8F62B6FEE7206C48B150202A
:1046100072B680F31188BFF34F8FBFF36F8F62B60E
:10462000FEE7022D0CD1E06B012809D0502072B6B4
:1046300080F31188BFF34F8FBFF36F8F62B6FEE731
:1046400000F020F9404F4FF080564FF0000958B964
:10465000049848B1502072B680F31188BFF34F8F91
:10466000BFF36F8F62B6FEE7FFF754FDA06BE16BFF
:10467000884207D3022D05D00498D0B1B8F1000FBD
:104680001AD01EE02A4651462046FFF7D3FA616A47
:1046900019B104F1240000F0BDF920B13E60BFF370
:1046A0004F8FBFF36F8FFFF759FD012006B0BDE8B4
:1046B000F087FFF753FD22E06846FFF7D1FD4FF08A
:1046C0000108FFF74BFDFFF72BFEFFF723FD94F9E1
:1046D0004400401C01D184F8449094F94500401CEA
:1046E00001D184F84590FFF739FD04A9684600F030
:1046F0002DF830B12046FFF7FBFB00F0C7F9002092
:10470000D4E7FFF707FDA06BE16B884213D1FFF7F9
:1047100025FD049904F11000FFF7B0FD2046FFF7D6
:10472000E7FB00F0B3F900289ED13E60BFF34F8F46
:10473000BFF36F8F98E7FFF711FD2046FFF7D8FB17
:1047400000F0A4F990E7000004ED00E02DE9F0414D
:1047500005000C4612D0DCB1FFF7DCFC1A4E2068D5
:104760007269471C6B68A2EB03011BD02F68B66A05
:10477000B74219D0934217D8012520E0502072B6D5
:1047800080F31188BFF34F8FBFF36F8F62B6FEE7E0
:10479000502072B680F31188BFF34F8FBFF36F8F35
:1047A00062B6FEE700250AE0884205D9401A20607B
:1047B0002846FFF755FDF5E7002020600125FFF7AB
:1047C000CDFC2846BDE8F0814C0000202DE9FF5FBC
:1047D000994616468A4683469000DDE90E87FFF724
:1047E000BDFB05001CD05420FFF7B8FB040014D01B
:1047F0000020256384F851004B46CDE90087CDE9C0
:104800000240324651465846FFF7D4FA2046FFF799
:10481000A9F9012004B0BDE8F09F2846FFF7B4FCD9
:104820004FF0FF30F6E7F0B585B0DDE90B740A9D77
:10483000A7B1ECB154262763022684F85160002703
:1048400003970DF1100C0095CDE901C4FFF7B2FA02
:104850002046FFF787F9049805B0F0BD502072B6E6
:1048600080F31188BFF34F8FBFF36F8F62B6FEE7FF
:10487000502072B680F31188BFF34F8FBFF36F8F54
:1048800062B6FEE70548C16919B1806B18B1002016
:104890007047012070470220704700004C00002044
:1048A0002DE9F0412F4CA06B002740B1206A401C3D
:1048B0002062606A00B101273846BDE8F081666970
:1048C000761C666115D16068006848B1502072B6E8
:1048D00080F31188BFF34F8FBFF36F8F62B6FEE78F
:1048E0006068A1686160A060A06A401CA062FFF7D8
:1048F000D7FADFF87480206B864209D360680068BD
:1049000080B16068C068C568686886420DD220635F
:104910002068C06A00EB800158F821000128C8D93E
:104920000127C6E74FF0FF30F1E7281DFFF7A0FB96
:10493000A86A18B105F11800FFF79AFBE86A01218F
:10494000A26981401143A16100EB800108EB810065
:10495000291DFFF7D3FB2068E96AC06A8142CDD3E5
:104960000127CBE74C0000204805002070B5044625
:104970004FF00001F0B3254D2868844209D0502043
:1049800072B680F31188BFF34F8FBFF36F8F62B69B
:10499000FEE7A06C38B1636C401EE26AA0649A42E4
:1049A00031D050B12FE0502072B680F31188BFF3A0
:1049B0004F8FBFF36F8F62B6FEE7201DFFF758FBE6
:1049C000134900284FF001000AD1E26A02EB82038A
:1049D00051F8233023B9AB6900FA02F29343AB617B
:1049E000626CC2F10703A361E262AB6990401843B5
:1049F000A86100E007E002EB820001EB8000211DCE
:104A0000FFF77CFB0121084670BD00004C00002030
:104A1000480500202DE9F041C068C468ACB104F13C
:104A200018000746FFF724FB164D0126A86BB0B10E
:104A300015483946FFF762FBE06A2968C96A88426F
:104A40001ED901206E62BDE8F081502072B680F35D
:104A50001188BFF34F8FBFF36F8F62B6FEE7201D43
:104A6000FFF706FBE06AAA6906FA00F11143A961A3
:104A7000054900EB8000B43901EB8000211DD9E726
:104A80000020E0E74C000020FC0500202DE9F04765
:104A90002D4DA86B0024264638B1FFF73BFBA86BD1
:104AA000401EA863A86B50B149E0502072B680F355
:104AB0001188BFF34F8FBFF36F8F62B6FEE7234FAE
:104AC00001202969D9B3A7F1B40980463868E8B153
:104AD000F868C46804F11800FFF7CAFA201DFFF750
:104AE000C7FAE16AAA6908FA01F01043A86101EB6C
:104AF000810109EB8100211DFFF700FB2968E06AB5
:104B0000C96A8842E2D3C5F82480DFE70CB1FFF719
:104B1000C7F92C6A44B14746FFF7C2FE00B16F6285
:104B2000641EF9D100202862686A40B10849012654
:104B30004FF080500860BFF34F8FBFF36F8FFFF7C8
:104B40000DFB3046BDE8F0874C000020FC0500203E
:104B500004ED00E04FF04070E1EE100A70470000F5
:104B6000D44B00081D2F00080000000000000000CA
:104B7000800000000000000000000000CC4B000896
:104B80002D2F0008FDFF0000000000008000000045
:104B90000000000000000000E04B0008392F000872
:104BA000FDFF000000000000800000000000000089
:104BB00000000000000000000000000001020304EB
:104BC000060708090000000001020304496E765F31
:104BD0004B4D000064656661756C745461736B00C5
:104BE0007472616A65637472790000000C4C00088D
:104BF00000000020AC00000034020008B84C00089F
:104C0000AC00002094C00700500200080000000023
:104C10000000000000000000000000000000000094
:104C20000000000000000000000000000000000084
:104C30000000000000000000000000000000000074
:104C40000000000000000000010000001000000053
:104C5000000000000024F40000000000000000003C
:104C60000000000000000000000000000000000044
:104C70000000000000000000000000000000000034
:104C80000000000000000000000000000000000024
:104C90000000000000000000000000000000000014
:104CA0000000000000000000000000000000000004
:084CB000AAAAAAAA0000000054
:04000005080001F9F5
:00000001FF
