:020000040800F2
:1000000088070020890100085B1100086B100008B8
:10001000591100088F020008AD140008000000000C
:100020000000000000000000000000005F11000858
:1000300091020008000000005D1100086111000835
:10004000A3010008A3010008A3010008A301000800
:10005000A3010008A3010008A3010008A3010008F0
:10006000A3010008A3010008A3010008A3010008E0
:10007000A3010008A3010008A3010008A3010008D0
:10008000A3010008A3010008A3010008A3010008C0
:10009000A3010008A3010008A3010008A3010008B0
:1000A000A3010008A3010008A3010008A3010008A0
:1000B000A3010008A3010008A3010008A301000890
:1000C000A3010008A3010008A3010008A301000880
:1000D000A3010008A3010008A3010008A301000870
:1000E000A3010008A3010008A301000800F002F822
:1000F00000F03AF80AA090E8000C82448344AAF188
:100100000107DA4501D100F02FF8AFF2090EBAE885
:100110000F0013F0010F18BFFB1A43F0010318473B
:10012000081D0000281D0000103A24BF78C878C1BF
:10013000FAD8520724BF30C830C144BF04680C60ED
:10014000704700000023002400250026103A28BF35
:1001500078C1FBD8520728BF30C148BF0B60704739
:100160001FB51FBD10B510BD00F058F81146FFF7C0
:10017000F7FF01F0F1F900F076F803B4FFF7F2FFB2
:1001800003BC00F07DF8000009488047094800479B
:10019000FEE7FEE7FEE7FEE7FEE7FEE7FEE7FEE737
:1001A000FEE7FEE704480549054A064B7047000094
:1001B000C3110008ED000008880100208807002016
:1001C00088030020880300204FF0000200B513468A
:1001D00094469646203922BFA0E80C50A0E80C5067
:1001E000B1F12001BFF4F7AF090728BFA0E80C5018
:1001F00048BF0CC05DF804EB890028BF40F8042B11
:1002000008BF704748BF20F8022B11F0804F18BF7D
:1002100000F8012B7047704770477047754600F033
:100220002BF8AE4605006946534620F00700854688
:1002300018B020B5FFF7B6FFBDE820404FF000062C
:100240004FF000074FF000084FF0000B21F00701BE
:10025000AC46ACE8C009ACE8C009ACE8C009ACE801
:10026000C0098D46704710B50446AFF300802046A4
:10027000BDE81040FFF781BF00487047240100200F
:1002800001491820ABBEFEE7260002007047FEE7DA
:100290007047000070B5044600F0FEF80546601C8B
:1002A00002D004480078044400F0F6F8401BA04255
:1002B000FAD370BD400000202DE9F84FDFF8B89167
:1002C000002409F1040A0AF1040B23460F270BF15D
:1002D000040EC9E00125A5402A40AA427DD1674EFF
:1002E000D1F804C0ACEB0608B44532D014DCBCF144
:1002F000030F3AD009DCBCF1000F2AD0BCF1010F8A
:100300001CD0BCF1020F31D11DE0BCF1110F17D090
:10031000BCF1120F2AD119E0B8F5881F19D006DCFC
:10032000B8F5803F15D0B8F5801F1FD111E0B8F5A2
:10033000001F0ED0B8F5041F18D10AE0CB6815E0F5
:10034000CB681B1D12E0CB6808330FE0CB680C3381
:100350000CE08B682BB1012B4FF0080303D04561F3
:1003600004E0042302E0056100E00023FF2A01D835
:10037000064601E000F104064FEA840501D9A5F123
:100380002005D6F8008007FA05FC28EA0C0803FAD5
:1003900005F548EA0508C6F800804D68ED0062D50D
:1003A000374DAE6946F00106AE61AD6924F0030633
:1003B00005F001050095334D06EB050CDCF80850FF
:1003C000A607360F07FA06F825EA0805DFF8B88011
:1003D000404503D14FF0000817E044E0DFF8AC805F
:1003E000404502D14FF001080FE0DFF8A4804045FE
:1003F00002D14FF0020808E0DFF89880404502D1B2
:100400004FF0030801E04FF0040808FA06F848EA44
:100410000508CCF808804D68D9F80060ED034D461A
:1004200001D5164300E096432E604D68DAF800606F
:10043000AD03554601D5164300E096432E604D6846
:10044000DBF80060ED025D4601D5164300E09643FF
:100450002E604D68DEF80060AD02754601D516438A
:1004600000E096432E60641C0D682A46E5407FF448
:1004700031AFBDE8F88F000000040140000011100A
:10048000001002400000014000080140000C014043
:1004900000100140001401400148806870470000CE
:1004A0004000002002488168027811448160704752
:1004B00040000020074810B5016841F010010160BC
:1004C000032000F05FF80F2000F006F800F024F899
:1004D000002010BD0020024070B50D4D04464FF4C1
:1004E0007A712878B1FBF0F00A490968B1FBF0F0A5
:1004F00000F0D6FA48B9102C07D200222146501E2F
:1005000000F020F800206C6070BD012070BD00007C
:10051000400000204C000020094808B5816941F0E6
:1005200001018161816901F001010091C16941F01E
:100530008051C161C06900F08050009008BD00008A
:1005400000100240F0B40E4B1B680C46C3F30223AC
:10055000C3F10705042D00D90425191D072901D26F
:10056000002300E0DB1E012606FA05F1491E2140AA
:1005700099409E40761E16403143F0BC00F097BF74
:100580000CED00E0064900F0070208684FF6FF0393
:10059000184040EA0220034A1043086070470000F8
:1005A0000CED00E00000FA052DE9F0470F460500CC
:1005B00061D0434E306800F00700B84209D230687D
:1005C00020F0070038433060306800F00700B84280
:1005D00051D128683B4C810712D5400703D560688C
:1005E00040F4E06060602878000703D5606840F45C
:1005F000605060606068A96820F0F00008436060A7
:100600002878C00728D06868012810D021680228FF
:1006100010D0890700292EDA616821F00301014317
:100620006160FFF739FF804641F288390DE02168AB
:100630008903EFE78901EDE7FFF72EFFA0EB080143
:10064000494502D90320BDE8F0876068696800F079
:100650000C00B0EB810FEFD1306800F00700B8421A
:100660000BD9306820F0070038433060306800F064
:100670000700B84201D00120E5E72878400705D5FA
:100680006068E96820F4E06008436060287800074B
:1006900006D56068296920F4605040EAC1006060B6
:1006A00000F038F86168084AC1F30311515CC84092
:1006B0000649086006480068FFF70EFF0020C2E701
:1006C00000200240001002400E1E00084C000020D6
:1006D000440000200448054900684968044AC1F301
:1006E0000221515CC84070474C00002000100240BD
:1006F0001E1E00080448054900684968044AC1F301
:10070000C221515CC84070474C00002000100240DC
:100710001E1E000812A185B00FC98DE80F0014A09D
:10072000144A006804905168134801F00C03042B2C
:1007300010D0082B0ED1C1F38343C9031DF8030069
:100740000AD5516804AAC1F34041515C0A4A50439A
:10075000B0FBF1F005B0704708494843FAE70000E4
:1007600002030405060708090A0B0C0D0E0F1010F2
:10077000010200000010024000127A0000093D0052
:100780002DE9F84F040070D02078C04DC00749D043
:100790006868C0F38100012807D06868C0F3810051
:1007A000022809D16868C00306D52868800339D5B6
:1007B00060680028E7D035E06068B0F5803F0BD076
:1007C00010B1B0F5A02F11D0286820F48030286037
:1007D000286820F4802002E0286840F480302860F7
:1007E000606890B1FFF758FE06460AE0286840F4BA
:1007F00080202860F0E700BFFFF74EFE801B6428D2
:1008000073D828688003F7D50CE0FFF745FE06464D
:1008100005E000BFFFF740FE801B6428F0D8286881
:100820008003F7D420789A4E80074FF001094FF0EB
:10083000000839D5686810F00C0F07D06868C0F35D
:100840008100022809D16868C00306D4286880079F
:1008500014D52069012808D110E02069B0B1C6F88C
:100860000090FFF719FE074605E00AE1FFF714FEC6
:10087000C01B0228C4D828688007F7D5286861699A
:1008800020F0F80040EAC10028600DE0C6F80080C2
:10089000FFF702FE074604E0FFF7FEFDC01B02283B
:1008A00023D828688007F7D4207800072CD579480A
:1008B000A169D9B1C0F80090FFF7EEFD074604E04A
:1008C000FFF7EAFDC01B02280FD8686A8007F7D53A
:1008D00071484FF4FA510068B0FBF1F0009000BF8E
:1008E0000098411E0091FAD20EE080E0C0F800802E
:1008F000FFF7D2FD074604E0FFF7CEFDC01B02283C
:1009000075D8686A8007F7D42078400760D5E86911
:100910000027C00008D4E86940F08050E861E86929
:10092000012700F0805000905C480168C90513D48D
:100930000168834641F480710160FFF7ADFD824696
:1009400006E000BFFFF7A8FDA0EB0A0064284ED820
:10095000DBF80000C005F5D5E06801280AD008B131
:10096000052813D0286A20F001002862286A20F0A8
:10097000040002E0286A40F001002862E06841F2C9
:10098000883B98B1FFF788FD82460BE0286A40F06B
:1009900004002862EEE700BFFFF77EFDA0EB0A012E
:1009A00059455AD8286A8007F6D50CE0FFF774FD40
:1009B000824605E0FFF770FDA0EB0A0159454CD8CF
:1009C000286A8007F6D41FB1E86920F08050E861FA
:1009D000E06988B36968C1F38101022944D0022823
:1009E000C6F8608004D0FFF757FD044638E034E0D5
:1009F000FFF752FD074604E0FFF74EFDC01B02283B
:100A00002BD828688001F7D4206AB0F5803F05D143
:100A10006868A16820F4003008436860D4E90801E0
:100A20000843696821F4741108436860C6F860904F
:100A3000FFF732FD044606E025E000BFFFF72CFD7E
:100A4000001B022809D828688001F7D51BE000BFE9
:100A5000FFF722FD001B022802D90320BDE8F88F12
:100A600028688001F4D40EE00128F7D06868226A73
:100A700000F48031914204D1616A00F47010884220
:100A800001D00120EAE70020E8E700000010024062
:100A900000004242800442424C00002000700040AE
:100AA00010B5401EB0F1807F01D3012010BD4FF082
:100AB000E02460610F21601700F0F9FC0020A061C4
:100AC00007202061002010BD70B590F83C20012A5D
:100AD00026D0012480F83C40022280F83D200368A3
:100AE0005A689D6822F070060A6832435A600D4BBE
:100AF00002689A4208D0B2F1804F05D00A4B9A4260
:100B000002D00A4B9A4204D1496825F08003194368
:100B1000916080F83D40002180F83C10084670BD8F
:100B2000022070BD002C014000040040000800407D
:100B30002DE9F0410D46040003D094F83D0018B1B2
:100B400008E00120BDE8F081002084F83C00204648
:100B500000F040F8022084F83D002068816844F2EB
:100B6000070291438160211D206800F02BFB226861
:100B700090689169166A2B68AF69034340F20330AD
:100B8000814341EA0721A868EF6908434FF6FC4119
:100B90008843E96840EA0720014328692F6A000179
:100BA00040EA0730084369686D6926F0220646EA84
:100BB0000515294393602268906154F8460B016241
:100BC000012004F81F09E0752076E0762077A075F3
:100BD0000020B7E700B585B0002100910191029196
:100BE00003910068B0F1804F16D10C48C16941F003
:100BF0000101C161C16901F001010491816941F004
:100C0000040181618069694600F0040004900320BA
:100C100000900348FFF750FB05B000BD00100240F4
:100C20000008014070B590F83E60044690F83F50CF
:100C300090F8423090F84320022021B104290ED0D0
:100C4000012E1BD114E0012E18D1012B16D184F8EE
:100C50003E0084F8420001220021206820E0012D9E
:100C60000CD1012A0AD184F83F0084F8430014E033
:100C7000012D03D1012B01D1012A01D0012070BD2A
:100C800084F83E0084F83F0084F8420084F8430072
:100C900001220021206800F0CBFA01220421206803
:100CA00000F0C6FA2068016841F0010101600020EF
:100CB00070BD000000B585B0002100910191029146
:100CC000039100680B49884211D10B48816941F0BA
:100CD000040181618069694600F004000490C0202D
:100CE00000900220019003900448FFF7E5FA05B058
:100CF00000BD000000040040001002400008014058
:100D000070B5044690F83C000D4601280AD0012039
:100D100084F83C0042B1042A18D0082A2AD00C2AB0
:100D20004DD139E0022070BD206800F08FFA2068B4
:100D3000816941F0080181612068816921F0040125
:100D40008161206881692A69114311E0206800F0FF
:100D5000A5FA2068816941F4006181612068816998
:100D600021F480618161206881692A6941EA022158
:100D7000816124E0206800F0BDFA2068C16941F07B
:100D80000801C1612068C16921F00401C1612068C6
:100D9000C1692A69114311E0206800F0D7FA206880
:100DA000C16941F40061C1612068C16921F48061B9
:100DB000C1612068C1692A6941EA0221C16100203C
:100DC00084F83C0070BD10B5040003D094F83D00D9
:100DD00010B107E0012010BD002084F83C0020463F
:100DE00000F01EF8022084F83D00211D206800F06C
:100DF000E9F9012084F8460084F83E0084F83F00B9
:100E000084F8400084F8410084F8420084F84300EC
:100E100084F8440084F8450084F83D00002010BDAB
:100E200008B500680649884208D10648C16941F002
:100E30000201C161C06900F00200009008BD00001D
:100E4000000400400010024010B50446022249B1DF
:100E500004290ED0082913D094F84100012816D097
:100E6000012010BD94F83E000128F9D184F83E20FD
:100E70000FE094F83F000128F2D184F83F2008E009
:100E800094F840000128EBD184F8402001E084F878
:100E900041200122206800F0CBF90F4920688842E8
:100EA00003D1426C42F4004242642068884208D078
:100EB000B0F1804F05D00949884202D008498842E4
:100EC00004D1816801F00701062903D0016841F0CF
:100ED00001010160002010BD002C01400004004011
:100EE0000008004070B5040004D094F83D000025CF
:100EF00010B106E0012070BD84F83C50204600F09F
:100F000023F8242084F83D002068C16821F40051B2
:100F1000C160204600F03CFA2068016921F490414C
:100F200001612068416921F02A0141612068C1689E
:100F300041F40051C1602564202084F83D0084F80C
:100F40003E00002070BD000030B585B00024009444
:100F500001940294039400681449884223D11448F0
:100F6000C16941F40031C161C16901F400310491EA
:100F7000816941F00401816180690E4D00F0040037
:100F80000490042000900220019003200390694601
:100F90002846FFF791F90820CDE900046946284664
:100FA0000294FFF789F905B030BD0000004400400D
:100FB00000100240000801402DE9F843044690F873
:100FC0003D001F4616460D4620284CD1C5B1BEB186
:100FD00094F83C00012846D0012084F83C004FF0F2
:100FE0000008C4F84080212084F83D00FFF754FA3F
:100FF000A6848146E684A068B0F5805F03D004E053
:101000000120BDE8F883206928B12E465FF0000575
:1010100084F83C800EE00026FAE78021204600F0AC
:1010200013FAA0B9AEB116F8010B21684860E08C44
:10103000401EE084E08C4B464FF0000200970028F1
:10104000EBD14FF04001204600F0FEF930B1032013
:10105000D7E735F8020BC0F30800E6E7202084F854
:101060003D000020CDE70220CBE7FEE710B58CB0B5
:1010700024216846FFF7A8F80024164809944FF089
:1010800080410A94C0E900144FF6FF71C0E90241A3
:101090008021046181610320CDE900040120CDE9B4
:1010A00002040494CDE90540079469460948089470
:1010B000FFF73EFD08B172B6FEE7099409A905489D
:1010C0000A94FFF701FD002801D072B6FEE70CB0CC
:1010D00010BD00005000002010B58AB00024079415
:1010E0001C2168460894FFF76FF81A481849C0E9B0
:1010F00000144FF6FF71C0E9024104618461FFF7FB
:1011000062FE08B172B6FEE7079407A91148089479
:10111000FFF7DAFC08B172B6FEE76020CDE9000403
:101120000294002269460B480494FFF7E9FD08B1D8
:1011300072B6FEE7042269460648FFF7E1FD08B1F2
:1011400072B6FEE70348FFF7B5FD0AB010BD000018
:101150000004004098000020FEE7FEE7704770475B
:10116000FFF7A0B930B58FB028216846FFF72CF8FB
:1011700014210AA8FFF728F801210804CDE900107E
:101180000024029402250491CDE907504FF4E010A9
:1011900009906846FFF7F4FA08B172B6FEE70F202F
:1011A000CDE90A054FF48060CDE90C4002210AA880
:1011B0000E94FFF7F9F9002801D072B6FEE70FB0E0
:1011C00030BD7047F0B50268164B174C174D4FF005
:1011D0008047984205D0B84203D0A04201D0A8422F
:1011E00003D122F070064A683243984205D0B842D3
:1011F00003D0A04201D0A84203D122F44074CA68AF
:1012000022434C6922F08002224302608A68C26253
:101210000A688262984201D1096901630121416132
:10122000F0BD0000002C0140000400400008004018
:1012300010B501F01F030121046A99408C43046238
:10124000016A9A401143016210BD000030B5026A84
:1012500022F001020262026A4368846924F0730585
:101260000C682C4322F002058A682A430A4DA842E2
:101270000BD122F00805CA6823F440732A434D6954
:1012800022F004021D438B692B434360846149684B
:101290004163026230BD0000002C014030B5026A9B
:1012A00022F010020262026A436884690D6824F425
:1012B000E64444EA05248D6822F0200242EA051241
:1012C0000B4DA8420ED1CD6822F0800242EA0512F1
:1012D0004D6923F4406343EA85038D6922F040029F
:1012E00043EA85034360846149688163026230BDDB
:1012F000002C014030B5026A22F480720262036A57
:101300004268C46923F4007324F073050C682C430D
:101310008D6843EA05230C4DA8420ED1CD6823F415
:10132000006343EA05234D6922F4405242EA051264
:101330008D6923F4806342EA05124260C461496802
:10134000C163036230BD0000002C014030B5026A69
:1013500022F480520262046A4268C3690D6823F471
:10136000E64343EA05238D6824F4005444EA053437
:10137000064DA84204D14D6922F4804242EA85120A
:101380004260C36149680164046230BD002C0140C1
:1013900070B5044600680169E26821F440511143C8
:1013A00001612169A0680843616908432168CA682E
:1013B00041F20C639A430243CA6020684169A26902
:1013C00021F44071114341611E492068884202D1D5
:1013D000FFF790F901E0FFF77DF900EBC00101EBA9
:1013E0000012606864218000B2FBF0F3B3FBF1F3FC
:1013F0006FF018067343B2FBF0F5B2FBF0F605EBA5
:101400008305322303EB0515B5FBF1F5B6FBF1F6C9
:1014100005F0F00505EB0615B2FBF0F6B2FBF0F0B7
:10142000B0FBF1F06FF01802504306EB800003EBC5
:101430000010B0FBF1F0216800F00F002844886034
:1014400070BD0000003801402DE9F0419846174674
:101450000E460446069D1DE0681C1BD02DB1FFF70B
:101460001BF8A0EB0800A84214D92068C16821F439
:10147000D071C1602068416921F0010141612020E3
:1014800084F83D0084F83E00002084F83C000320EE
:10149000BDE8F0812068006836EA000004D0002032
:1014A000B842D9D00020F3E70120F9E7FEE70907A9
:1014B000090E002804DB00F1E02080F800147047DA
:1014C00000F00F0000F1E02080F8141D70470000CC
:1014D0002DE9F041FEF7E0FF00F044FB1D4C05460E
:1014E0002062616900F01EFC656107466062D4E914
:1014F0000010401A00F01EFBA0620546A16900F032
:1015000011FC394600F054FA0646E0623946284696
:1015100000F03CFBE16900F0E9F90146E061E068B8
:1015200000F034FB07463146206900F02FFB0646E9
:101530002946A06800F02AFB314600F0D7F9394669
:1015400000F0D4F900F0A6F9A561C4E90E01BDE8E8
:10155000F08100000000002092B034216846FEF7C0
:1015600033FEFEF7A7FFFFF7FDFD002442480E946F
:101570000F941094816941F020018161816901F02B
:1015800020011191816941F00401816180690DA9F7
:1015900000F00400119010200D903848FEF78CFEEA
:1015A000FFF764FD3748364901604FF4E131C0E987
:1015B00001140C21C460C0E904418461C461FFF7D7
:1015C00091FC08B172B6FEE7FFF786FD2D483C217D
:1015D0009038FFF727FB2B4800214838FFF734FCF1
:1015E000284804214838FFF72FFC274D2C60281F7E
:1015F0000460C71306077762A046244C4FF6FF7AB3
:101600008146706A20637762616864230844A0F5AC
:1016100000406060322269461A48FFF7CDFCFFF7B0
:1016200057FF0820FEF736FED4E90E0100221346CC
:1016300000F0FAF8D4E90E010ED800F035F84FF6B4
:10164000FA71884203DDC5F80080504601E0C5F814
:101650000080C9F80000D4E700F026F84FF6FA71D0
:10166000C84203DAC9F80080504602E0C9F8008099
:1016700040422860C5E70000001002400008014019
:1016800000440040E000002038040040000000203A
:10169000491058BFC1F140415B1058BFC3F14043EE
:1016A0008B42EFF3008070474FEA41034FEA5353F8
:1016B000A3F58063D3F11E03C8BFD3F1210C0CDD69
:1016C0004FF0004242EAC12242EA505232FA03FC91
:1016D0008CEAE17CACEBE1707047102BC4BF0020BA
:1016E000704703F5787CBCF1FF3F04D06FF00042F7
:1016F00082EA2100704770B500F042F849922480D8
:1017000000207047F2E7000051EA030C17D41CF5E3
:10171000801F58BFBCF5801F00F10680994218BF9A
:10172000704708BF9042704707D711F5801F58BF18
:1017300013F5801F19D499427047894270471CF5F0
:10174000801F08D5BCF5801FF7D58B4218BF7047A6
:1017500008BF824270474FF4001C1CEB410F38BF9A
:101760001CEB430F01D28B42704770B500F008F8B4
:10177000922449004FF000514FF08053FFF788BF8B
:101780000EF1020E2EF0030E5EF8046B364205D405
:10179000012A43EB030515F5001F12D8012841EB80
:1017A000010C1CF5001F0CD80ED14FEAD17C15F5A9
:1017B000001F0CEB4C0C0CF1020C08BF4CEBD37C63
:1017C00004E04FF0080C01E04FEAD37C0CEB4C0531
:1017D00026FA05F606F00706B6F1040C06D20EEB63
:1017E000860CBDE870404CF0010C6047DFE80CF05F
:1017F000090B02024FF000414FF00000A1F500215B
:1018000070BD19461046012851EB010418BFD4F5EC
:10181000001484BF002001F0004170BD0808A0F54D
:1018200000114FEA3101704753EA010C17D41CF53F
:10183000801F58BFBCF5801F00F106808B4218BF87
:10184000704708BF8242704707D713F5801F58BF03
:1018500011F5801F19D48B4270479B4270471CF5CD
:10186000801F08D5BCF5801FF7D5994218BF704777
:1018700008BF904270474FF4001C1CEB430F38BF69
:101880001CEB410F01D2994270470FB40CBC03BC52
:10189000FFF76BBF43004FEAD30C4FEA3C0C4340C9
:1018A0001FBF40070CF1605113F0FE4F70471CF052
:1018B000006F03D100200CF0004170470CF0004392
:1018C00043EA507010B540EACC0000F0E0F900BFE8
:1018D000000000924FEA0001FFF7A0BF4FF0004167
:1018E0004FF00000A1F500217047000090EA010FC1
:1018F00048BF81F0004100F11C82421A3CBF801AAF
:1019000089184FEAD0524FF07F4C1CEA410FA2EBEE
:10191000D15318BF9CEA026F00F03B804FF0004C9F
:101920004CEA00204CEA012121FA03FC10EB0C0CDC
:101930001ED202F1FF325FEA1C2040EBC25038BFDA
:1019400070471CF07F0F4FEA400C18BFBCF17F4F6F
:1019500038BF7047C3F12003994008BF20F0010051
:10196000BCF17F4F38BF7047A0F1C04000F0D5B93F
:101970004FEA3C00000A40EBC25028BF1CF0FF0FAA
:101980004FEA400CE6D018BFBCF17F4F38BF70471C
:10199000EAE79CEA026F05D010EA5C0F08BF00F08E
:1019A0000040704710B500F072F900BF64FBBE3E06
:1019B0004FF47F0C1CEAD0121EBF1CEAD11392EA2E
:1019C0000C0F93EA0C0F00F0858090EA010F48BFDE
:1019D00042F4807240F4000C41F400002CF07F418E
:1019E00020F07F4000B58142A2EB03020FF2081CF9
:1019F000ACEB504EC0F100009EF800E04FEA4E0EF6
:101A000000FB0EFC38BF49004FEA2C1C02F5FA021D
:101A10000CFB0EF34FEACE1E4FEA112C4FEAC12108
:101A20000EEB635E42EB22420EFB0CFC4FEA1C53B2
:101A300000FB03114FEA112C4FEA01310EFB0CFCA5
:101A40004FEADC4C00FB0C11C14228BF09184CEBDB
:101A500003335DF804EB10EB410143EBC250B2F5E8
:101A60007C0F38BF704729D512F0F00F1CBF00F172
:101A7000C04000F0004070470081828384858687E3
:101A800088898B8C8D8E8F919293959697999A9C3D
:101A90009D9FA0A2A3A5A7A8AAACAEB0B2B3B5B7AC
:101AA000B9BCBEC0C2C5C7C9CCCED1D4D7D9DCDF82
:101AB000E2E6E9ECF0F3F7FAFE0000004FEA400C32
:101AC0000CF1807CBCF17E4F28BF7047B0F1C04064
:101AD00000F023B990EA010F0CEAD11348BF42F499
:101AE0008072624538BF634507D213F47F0F16D06A
:101AF00080EA010000F00040704710B500F0C7F820
:101B0000097EFC3E00F005B880EA010000F00040CC
:101B1000704780EA010000F0004000F0FEB812F4C7
:101B20007F0F04BF0248704780EA010000F0F5B85B
:101B30000000C07F10F0004148BF4042B0FA80F37F
:101B400010FA03F2C3F19D030BD051EAC35101EB2C
:101B50001220530638BF704700F1010008BF20F083
:101B600001007047B0FA80F310FA03F2C3F19D034D
:101B70000AD0D90501EB1220530638BF704700F197
:101B8000010008BF20F00100704700004FF47F0CF7
:101B90001CEAD0121EBF1CEAD11392EA0C0F93EA82
:101BA0000C0F00F0478090EA010F48BF42F48072AA
:101BB0004FF0004C4CEA00204CEA012102EB0302FA
:101BC000A0FB0113A2F50002002918BF43F0010396
:101BD0005B0028BF4FEA330342EB22425FEA132C3B
:101BE0004CEBC2502EBFBCEB436FB2F57C0F70477D
:101BF0004FEA036CBCF1004F08BF20F00100B2F5C2
:101C00007C0F38BF70470BD582F0FF0212F5803F82
:101C1000C8BF704700F1C040D8BF00F00040704717
:101C200000F5000C5FEA4C0C48BF7047B0F1C040B3
:101C300000F073B890EA010F0CEAD11348BF42F4E8
:101C40008072624538BF634504D280EA010000F02B
:101C50000040704710B500F01AF800BF8900013E3F
:101C600000F007B800F009B85FEA410C5FEA1C6CAD
:101C700008D080EA010000F050B85FEA400C5FEA4B
:101C80001C6CF6D14FF00040A0F5800070470EF1BB
:101C9000020E2EF0030E5EF8044B244204D44FEAE9
:101CA0004102B2F17F4F11D84FEA4003B3F17F4FA9
:101CB0000CD80ED14FEAD07CB2F17F4F0CEB4C0C1C
:101CC0000CF1020C08BF4CEBD17C04E04FF0080C87
:101CD00001E04FEAD17C0CEB4C0324FA03F404F04E
:101CE0000704B4F1040C06D20EEB840CBDE81040DE
:101CF0004CF0010C6047DFE80CF0070802024FF0DF
:101D00000040A0F5800010BD0846420018BFD2F187
:101D1000807288BF00F0004010BDFF2141EAD05022
:101D2000C005704790EA010F48BF81F000413FF5C0
:101D3000E4AD421A04D882F00042A0EB0200114444
:101D40004FEAD0524FF07F4C1CEA410FA2EBD15327
:101D500018BF9CEA026F4AD04FF0004C4CEA0020BA
:101D60004CEA012121FA03FCB0EB0C0C0FD412F069
:101D7000FE0F36D05FEA4C001DD5001240EBC2507A
:101D800038BF70471CF03F0F18BF70470BE0A2F13F
:101D900001025FEA1C2040EBC25038BF70471CF0C4
:101DA0007F0F18BF7047C3F12003994014BF401E36
:101DB00020F00100704780084FEA122308BF7047E7
:101DC000B0FA80FCA2EB0C02CCF1280C60FA0CF00B
:101DD00093EA122F04BF00EBC25070474FEAC37062
:101DE0007047130A5FEADC1008BF7047F6E79CEA09
:101DF000026F04D010EA5C0F08BF0020704710B5D6
:101E0000FFF745FF40DFF63E81F0004070470000DD
:101E1000000000000000010203040607080900009A
:101E20000000010203040000481E0008000000201A
:101E30005000000028010008981E000850000020F3
:101E40003807000044010008D0070000000000002F
:101E500000004040A69B443B0000024300000000FD
:101E60000000000000000000000000000000000072
:101E70000000000000000000000000000000000062
:101E80000000000000000000010000001000000041
:081E9000000000000024F40032
:04000005080000ED02
:00000001FF
