:020000040800F2
:100000009807002091010008C71A0008ED190008A0
:10001000C51A0008CB040008951D00080000000068
:10002000000000000000000000000000CB1A0008E3
:10003000D904000800000000C91A0008CD1A000801
:10004000AB010008AB010008AB010008AB010008E0
:10005000AB010008AB010008AB010008AB010008D0
:10006000AB010008AB010008AB010008AB010008C0
:10007000AB010008AB010008AB010008AB010008B0
:10008000AB010008AB010008AB010008AB010008A0
:10009000891D0008CD040008AB010008AB01000871
:1000A000AB010008AB010008AB010008AB01000880
:1000B000AB010008AB010008AB010008AB01000870
:1000C000AB010008AB010008AB010008AB01000860
:1000D000AB0100087D1D0008AB010008AB01000862
:1000E000AB010008AB010008AB01000800F002F80A
:1000F00000F03FF80AA090E8000C82448344AAF183
:100100000107DA4501D100F034F8AFF2090EBAE880
:100110000F0013F0010F18BFFB1A43F0010318473B
:10012000EC1D00000C1E0000103A24BF78C878C1F6
:10013000FAD8520724BF30C830C144BF04680C60ED
:10014000704700000023002400250026103A28BF35
:1001500078C1FBD8520728BF30C148BF0B60704739
:10016000692900F07D80002070471FB51FBD10B5C4
:1001700010BD00F070F91146FFF7F7FF01F01CFE0B
:1001800000F08EF903B4FFF7F2FF03BC00F096F91C
:100190000948804709480047FEE7FEE7FEE7FEE71B
:1001A000FEE7FEE7FEE7FEE7FEE7FEE70448054957
:1001B000054A064B704700002F1B0008ED000008A1
:1001C0009801002098070020980300209803002041
:1001D0000FB41CB5074B06AA7B44694600900598EE
:1001E00000F021F90020694600F030F91CBC5DF8F0
:1001F00014FB0000710200002DE9F0410E46044698
:10020000002020622046E168884730B3252805D0C9
:10021000D4E901219047206A401CF2E7E1682046BA
:1002200000278847050018D0A5F14100192802D8F9
:1002300020354FF400673246294620462760FFF7F5
:100240008FFF40B1012804D0F61D26F007060836BE
:10025000D8E7361DD6E72846DAE7206ABDE8F08100
:100260002DE9F0410646002410687529314616A58F
:1002700010D0AFF30080002802DA404213A507E057
:1002800031688A0701D512A502E0490704D511A5F6
:10029000012401E0AFF3008000210A2206F12407C7
:1002A00009E0B0FBF2FCB0FBF2F302FB1C003030C3
:1002B00078541846491C0028F3D123462A46304674
:1002C000BDE8F04100F051B8000000002D00000032
:1002D0002B0000002000000010B5431C02E010F8C5
:1002E000011B71B18107FAD14FF0013202C88C1A9B
:1002F0008C4314EAC211F9D0C01A0A0603D0C01EFA
:1003000010BDC01A10BD0A0401D0801E10BD090224
:10031000FCD0401E10BD4FF0000200B513469446BD
:100320009646203922BFA0E80C50A0E80C50B1F14D
:100330002001BFF4F7AF090728BFA0E80C5048BF61
:100340000CC05DF804EB890028BF40F8042B08BFFF
:10035000704748BF20F8022B11F0804F18BF00F8FB
:10036000012B70477047704770472DE9F0470D46E5
:1003700099469246044600F124080168880604D58F
:10038000E06921F01001216000E00120A84201DDB8
:10039000471B00E00027A1697A1902EB0900081A3F
:1003A000A0612078C00602D42046AFF3008000266A
:1003B00008E0D4E901211AF806009047206A401CA1
:1003C000761C20624E45F4DB2078C0060AD5204614
:1003D000AFF3008006E0D4E9012130209047206A85
:1003E000401C2062381EA7F10107F4DC07E0D4E9C5
:1003F000012118F805009047206A401C2062281E41
:10040000A5F10105F3DC2046AFF30080207800065B
:1004100002D50220BDE8F0870120FBE701694A1CF4
:1004200002610878704700B58FB0CDE90131002135
:10043000059105497944CDE9031011466846FFF757
:10044000DBFE0FB000BD0000E5FFFFFF0A6802F809
:10045000010B0A607047754600F02CF8AE460500A7
:100460006946534620F00700854618B020B5FFF7CF
:100470009DFEBDE820404FF000064FF000074FF012
:1004800000084FF0000B21F00701AC46ACE8C009B2
:10049000ACE8C009ACE8C009ACE8C0098D467047BB
:1004A00010B50446AFF300802046BDE81040FFF7CA
:1004B00069BE00000048704738010020014918203B
:1004C000ABBEFEE7260002007047FEE7014800F0E1
:1004D00071B9000084000020704790F82020012AA4
:1004E00007D0022A05D0416A41F4802141620120EF
:1004F0007047006842690A43426100207047F0B5C6
:1005000090F820500468A468012D05D0022D03D076
:10051000416A41F480215DE014F0406F01D1E500B3
:1005200055D5C4F30164022C03D9416A41F400019A
:1005300050E00125A5401D608D684FF4C0739DB14A
:10054000CE6835434E6845EAC605066803EB0417D6
:10055000F5514FF4C275076805EB04150E697E511D
:10056000097D012905D009E00E88CD6845EA465588
:10057000EBE701684E5946F480764E511179D579F2
:10058000567941EA056195792D0445EA0625294306
:100590004FF4C676056806EB0416A9511178D57894
:1005A00041EA0561957852782D0445EA022211430B
:1005B0004FF4C475026805EB04155151006803EB54
:1005C0000411425842F0010242500020F0BD416A3D
:1005D00041F4001141620120F0BD000010B590F817
:1005E00020300268012B07D0022B05D0416A41F46C
:1005F00080214162012010BDD2F8000240F00100CC
:10060000C2F80002087D00F01F0301209840D2F8D4
:100610001C328343C2F81C32CB69B3B9D2F80C3216
:100620008343C2F80C328C894B6864F31F434C69D6
:1006300002EBC404C4F840320C890B6864F31F4316
:100640004C6902EBC404C4F84432CB69012B16D1C7
:10065000D2F80C320343C2F80C320C884B6864F3B6
:100660001F434C6902EBC404C4F840320C89CB68C8
:1006700064F31F434C6902EBC404C4F844328B6931
:10068000002BD2F804320FD053EA0003C2F8043230
:100690000B69002BD2F8143208D00343C2F814328D
:1006A000096A012904D008E08343EFE78343F5E7B3
:1006B000D2F81C120143C2F81C12D2F8000220F03A
:1006C0000100C2F80002002010BD704730B590F85C
:1006D0002040012C05D0022C03D0416A41F4802136
:1006E0005DE00468002955D02469A40754D04FF474
:1006F000D874056804EB01142D5915F004059560B4
:1007000005682D594ED0ED08556005682C5904F048
:100710000204D4604FF4DA74056804EB01142D5917
:1007200005F00F05156105682D59C5F3072595617D
:1007300005682C59240C54614FF4DC72046802EBF8
:100740000112A4581C700468A458240A5C70046840
:10075000A458240C9C700468A258120EDA704FF44E
:10076000DE72046802EB0112A4581C710468A458DC
:10077000240A5C710468A458240C9C710468A25873
:10078000120EDA71006881B1016941F02001016146
:10079000002030BDE468A8E7416A41F400114162DD
:1007A000012030BD6D0D1560AFE7C16841F020013B
:1007B000C160EDE72DE9F05F054600680024466959
:1007C000D0F804908768D0F80CB0D0F810A0D0F81A
:1007D0001880F10748D0F90714D001218160B807CB
:1007E00003D5284600F037FA0CE0780702D54FF41D
:1007F000006407E0380702D54FF4805402E0284631
:1008000000F028FAF80516D529684FF48070886042
:10081000B80503D5284600F020FA0CE0780502D58B
:1008200044F4005407E0380502D544F4804402E063
:10083000284600F011FAF80316D529684FF48030E5
:100840008860B80303D5284600F009FA0CE0780365
:1008500002D544F4004407E0380302D544F4803460
:1008600002E0284600F0FAF9300707D55FEACB60CE
:1008700004D52968102044F40074C86070074FF054
:10088000080707D55FEA0B7004D52868C7602846BB
:1008900000F062F9B00706D52868C068800702D06A
:1008A000284600F05AF9700607D55FEACA6004D5F9
:1008B0002968102044F480640861B00607D55FEA17
:1008C0000A7004D528680761284600F047F9F00649
:1008D00006D528680069800702D0284600F040F954
:1008E000B00308D55FEAC96005D5296810204860C3
:1008F000284600F081F9F00307D55FEA097004D5B6
:1009000028684760284600F0ABF9300446D55FEA16
:10091000497040D5F00504D55FEAC87001D044F0B5
:100920000104B00504D55FEA887001D544F00204E3
:10093000700504D55FEA487001D544F00404300521
:1009400029D518F0700F26D008F07000402815D077
:1009500006DC102809D020280AD0302816D10AE059
:1009600050280ED0602811D10EE044F008040DE0AC
:1009700044F010040AE044F0200407E044F040048E
:1009800004E044F0800401E044F480742868816944
:1009900021F070018161296804204860002C05D095
:1009A000686A204368622846FFF78FFEBDE8F09F23
:1009B00070B5040003D094F8200010B104E00120C9
:1009C00070BD204600F082F82068016841F0010106
:1009D000016000F0ABFA0546052604E000F0A6FA37
:1009E000401B0A2811D820684068C007F6D020684C
:1009F000016821F00201016000F098FA05460BE061
:100A000000F094FA401B0A2806D9606A40F40030CE
:100A1000606284F82060D2E7206840688007EFD4E5
:100A2000207E0128206801683DD021F0800101600E
:100A3000607E01282068016838D021F04001016003
:100A4000A07E01282068016833D021F020010160D8
:100A5000E07E0128206801682ED041F0100101607D
:100A6000207F01282068016829D021F00801016059
:100A7000607F01282068016824D021F00401016012
:100A8000D4E902010843D4E9041211430843616820
:100A9000491E08432168C86100206062012084F873
:100AA0002000002070BD41F08001C0E741F040010E
:100AB000C5E741F02001CAE721F01001CFE741F07E
:100AC0000801D4E741F00401D9E7000010B586B071
:100AD0000021009101910291039100681B49884215
:100AE00032D11B48C16941F00071C161C16901F097
:100AF00000710491816941F0040181618069154CA4
:100B000000F0040004904FF4006000906946204615
:100B100000F016F9A0140090022001900320039029
:100B20006946204600F00CF900221146142000F01E
:100B300069FA142000F058FA00221146152000F03E
:100B400061FA152000F050FA06B010BD00640040B4
:100B500000100240000801407047704770470000D5
:100B600010B5234C012104F11803224A2160FFF73C
:100B7000ADFD08B172B6FEE71E481D490268183186
:100B80002530B2F5927F15D0B2F59B7F21D0A2F52A
:100B90008073773B0DD10A7882714B78C371897865
:100BA00001726420424303EB830002EB40000844DF
:100BB000606110BD0A7802704B784370897881704B
:100BC0006420424303EB830002EB40000844E060F2
:100BD00010BD0A78C2704B78037189784171642026
:100BE000424303EB830002EB40000844206110BD48
:100BF00000000020080100207047000070B5044686
:100C000090F82000012804D0606A40F4002060625F
:100C100018E0022084F820002068016821F001011A
:100C2000016000F083F905460EE000BF00F07EF998
:100C3000401B0A2808D9606A40F400306062052031
:100C400084F82000012070BD20684068C007EDD105
:100C5000606270BD7047704770477047704770475B
:100C6000704710B590F821100022022905D0042108
:100C7000816380F82020012010BD01680B6823F0FB
:100C80000E030B6001680B6823F001030B6090F802
:100C90004030C46B012101FA03F3636080F8211036
:100CA00080F82020104610BD10B590F821100024C7
:100CB000022903D00421816301243DE001680A6810
:100CC00022F00E020A6001680A6822F001020A603E
:100CD0001A4A0168914201D1012121E0174A1432D8
:100CE000914201D110211BE0144A2832914201D1D6
:100CF000891515E0114A3C32914201D189140FE067
:100D00000E4A5032914202D14FF4803108E00B4A32
:100D10006432914202D14FF4801101E04FF08071B2
:100D2000064A083A5160012180F82110002180F81C
:100D30002010416B01B18847204610BD08000240D9
:100D40002DE9F84FDFF8B891002409F1040A0AF1FF
:100D5000040B23460F270BF1040EC9E00125A54023
:100D60002A40AA427DD1674ED1F804C0ACEB0608F8
:100D7000B44532D014DCBCF1030F3AD009DCBCF12D
:100D8000000F2AD0BCF1010F1CD0BCF1020F31D1F1
:100D90001DE0BCF1110F17D0BCF1120F2AD119E0E0
:100DA000B8F5881F19D006DCB8F5803F15D0B8F526
:100DB000801F1FD111E0B8F5001F0ED0B8F5041F39
:100DC00018D10AE0CB6815E0CB681B1D12E0CB6898
:100DD00008330FE0CB680C330CE08B682BB1012B90
:100DE0004FF0080303D0456104E0042302E00561ED
:100DF00000E00023FF2A01D8064601E000F10406C6
:100E00004FEA840501D9A5F12005D6F8008007FA3C
:100E100005FC28EA0C0803FA05F548EA0508C6F8B7
:100E200000804D68ED0062D5374DAE6946F0010691
:100E3000AE61AD6924F0030605F001050095334D60
:100E400006EB050CDCF80850A607360F07FA06F883
:100E500025EA0805DFF8B880404503D14FF00008C7
:100E600017E044E0DFF8AC80404502D14FF00108C4
:100E70000FE0DFF8A480404502D14FF0020808E0FF
:100E8000DFF89880404502D14FF0030801E04FF0B1
:100E9000040808FA06F848EA0508CCF808804D6806
:100EA000D9F80060ED034D4601D5164300E09643A6
:100EB0002E604D68DAF80060AD03554601D5164343
:100EC00000E096432E604D68DBF80060ED025D4661
:100ED00001D5164300E096432E604D68DEF80060B1
:100EE000AD02754601D5164300E096432E60641CA2
:100EF0000D682A46E5407FF431AFBDE8F88F000069
:100F000000040140000011100010024000000140E8
:100F100000080140000C0140001001400014014095
:100F20000AB1016170470904FBE7000001488068CD
:100F300070470000200000200248816802781144B8
:100F40008160704720000020074810B5016841F01B
:100F500010010160032000F075F80F2000F006F882
:100F600000F024F8002010BD0020024070B50D4DA7
:100F700004464FF47A712878B1FBF0F00A49096809
:100F8000B1FBF0F000F0ECFA48B9102C07D20022C7
:100F90002146501E00F036F800206C6070BD012024
:100FA00070BD0000200000202C0000200C4808B577
:100FB000816941F001018161816901F001010091C4
:100FC000C16941F08051C161C06900F0805000905A
:100FD0000448416821F0E06141F00071416008BDC2
:100FE0000010024000000140002809DB00F01F0251
:100FF000012191404009800000F1E020C0F800117B
:1010000070470000F0B40E4B1B680C46C3F302237C
:10101000C3F10705042D00D90425191D072901D2A4
:10102000002300E0DB1E012606FA05F1491E2140DF
:1010300099409E40761E16403143F0BC00F0ABBE96
:101040000CED00E0064900F0070208684FF6FF03C8
:10105000184040EA0220034A10430860704700002D
:101060000CED00E00000FA052DE9F0470F46050001
:1010700061D0434E306800F00700B84209D23068B2
:1010800020F0070038433060306800F00700B842B5
:1010900051D128683B4C810712D5400703D56068C1
:1010A00040F4E06060602878000703D5606840F491
:1010B000605060606068A96820F0F00008436060DC
:1010C0002878C00728D06868012810D02168022835
:1010D00010D0890700292EDA616821F0030101434D
:1010E0006160FFF723FF804641F288390DE02168F7
:1010F0008903EFE78901EDE7FFF718FFA0EB08018F
:10110000494502D90320BDE8F0876068696800F0AE
:101110000C00B0EB810FEFD1306800F00700B8424F
:101120000BD9306820F0070038433060306800F099
:101130000700B84201D00120E5E72878400705D52F
:101140006068E96820F4E060084360602878000780
:1011500006D56068296920F4605040EAC1006060EB
:1011600000F038F86168084AC1F30311515CC840C7
:101170000649086006480068FFF7F8FE0020C2E74D
:101180000020024000100240F41E00082C00002045
:10119000240000200448054900684968044AC1F356
:1011A0000221515CC84070472C0000200010024012
:1011B000041F00080448054900684968044AC1F34F
:1011C000C221515CC84070472C0000200010024032
:1011D000041F000812A185B00FC98DE80F0014A0EC
:1011E000144A006804905168134801F00C03042B62
:1011F00010D0082B0ED1C1F38343C9031DF803009F
:101200000AD5516804AAC1F34041515C0A4A5043CF
:10121000B0FBF1F005B0704708494843FAE7000019
:1012200002030405060708090A0B0C0D0E0F101027
:10123000010200000010024000127A0000093D0087
:101240002DE9F84F040070D02078C04DC00749D078
:101250006868C0F38100012807D06868C0F3810086
:10126000022809D16868C00306D52868800339D5EB
:1012700060680028E7D035E06068B0F5803F0BD0AB
:1012800010B1B0F5A02F11D0286820F4803028606C
:10129000286820F4802002E0286840F4803028602C
:1012A000606890B1FFF742FE06460AE0286840F405
:1012B00080202860F0E700BFFFF738FE801B64281D
:1012C00073D828688003F7D50CE0FFF72FFE064699
:1012D00005E000BFFFF72AFE801B6428F0D82868CD
:1012E0008003F7D420789A4E80074FF001094FF021
:1012F000000839D5686810F00C0F07D06868C0F393
:101300008100022809D16868C00306D428688007D4
:1013100014D52069012808D110E02069B0B1C6F8C1
:101320000090FFF703FE074605E00AE1FFF7FEFD28
:10133000C01B0228C4D828688007F7D528686169CF
:1013400020F0F80040EAC10028600DE0C6F80080F7
:10135000FFF7ECFD074604E0FFF7E8FDC01B02289D
:1013600023D828688007F7D4207800072CD579483F
:10137000A169D9B1C0F80090FFF7D8FD074604E095
:10138000FFF7D4FDC01B02280FD8686A8007F7D585
:1013900071484FF4FA510068B0FBF1F0009000BFC3
:1013A0000098411E0091FAD20EE080E0C0F8008063
:1013B000FFF7BCFD074604E0FFF7B8FDC01B02289D
:1013C00075D8686A8007F7D42078400760D5E86947
:1013D0000027C00008D4E86940F08050E861E8695F
:1013E000012700F0805000905C480168C90513D4C3
:1013F0000168834641F480710160FFF797FD8246E2
:1014000006E000BFFFF792FDA0EB0A0064284ED86B
:10141000DBF80000C005F5D5E06801280AD008B166
:10142000052813D0286A20F001002862286A20F0DD
:10143000040002E0286A40F001002862E06841F2FE
:10144000883B98B1FFF772FD82460BE0286A40F0B6
:1014500004002862EEE700BFFFF768FDA0EB0A0179
:1014600059455AD8286A8007F6D50CE0FFF75EFD8B
:10147000824605E0FFF75AFDA0EB0A0159454CD81A
:10148000286A8007F6D41FB1E86920F08050E8612F
:10149000E06988B36968C1F38101022944D0022858
:1014A000C6F8608004D0FFF741FD044638E034E020
:1014B000FFF73CFD074604E0FFF738FDC01B02289C
:1014C0002BD828688001F7D4206AB0F5803F05D179
:1014D0006868A16820F4003008436860D4E9080116
:1014E0000843696821F4741108436860C6F8609085
:1014F000FFF71CFD044606E025E000BFFFF716FDE0
:10150000001B022809D828688001F7D51BE000BF1E
:10151000FFF70CFD001B022802D90320BDE8F88F5D
:1015200028688001F4D40EE00128F7D06868226AA8
:1015300000F48031914204D1616A00F47010884255
:1015400001D00120EAE70020E8E700000010024097
:1015500000004242800442422C0000200070004003
:1015600010B5401EB0F1807F01D3012010BD4FF0B7
:10157000E02460610F21601700F00DFC0020A061E5
:1015800007202061002010BD70477047F8B5026841
:1015900004461068D168536910F00F0F4FF0000532
:1015A00053D003F0010601F4907737435FD0C207B0
:1015B00005D0CA0503D5226C42F00102226442071D
:1015C00005D5DA0703D0226C42F0020222648207BA
:1015D00005D5DA0703D0226C42F004022264020728
:1015E00007D501F02002324303D0226C42F00802FA
:1015F0002264226C002A34D0800604D5880602D5E5
:10160000204600F0B5FA20684069216CC0F38010D4
:10161000090700D430B3204600F092FA20684169EF
:1016200049061BD5416921F040014161A06BA8B179
:1016300058494163A06BFFF737FB002811D0A06B1E
:10164000416B01B0BDE8F040084783060FD58B061B
:101650000DD52046BDE8F84000F08ABA2046FFF7D5
:1016600094FFF8BD2046FFF790FF2564F8BD266B78
:101670002023012E52D1C60650D5CE064ED5106875
:1016800050680090506940062AD5A16B08684068F0
:101690000004000CEAD0A68D8642E7D9E08588696F
:1016A000202818D0D06820F48070D060206841696C
:1016B00021F0010141612068416921F0400141614F
:1016C00084F83E3025632068C16821F01001C160B4
:1016D000A06BFFF7C6FAA08DE18D401A81B219E028
:1016E000A08DE18D401A81B2E08D0028BED0002986
:1016F000BCD0D06820F49070D0602068426922F09D
:101700000102426184F83E3025632068C26822F0FD
:101710001002C2602046FFF737FFF8BD05062BD543
:101720000D0629D594F83D002128F6D1A068B0F522
:10173000805F01D12069B0B1206A411C216221681B
:1017400000784860E08C401E0004000CE084E4D186
:101750002068C16821F08001C1602068C16841F043
:101760004001C160F8BD206A0088C0F308005060E5
:10177000206A801C2062E5E74006F3D54806F1D5D3
:10178000D168204621F04001D16084F83D3000F05E
:101790002CF9F8BD311B000870B5040004D094F892
:1017A0003D00002510B106E0012070BD84F83C50DA
:1017B000204600F023F8242084F83D002068C1680A
:1017C00021F40051C160204600F02EFA2068016922
:1017D00021F4904101612068416921F02A014161B1
:1017E0002068C16841F40051C1602564202084F85C
:1017F0003D0084F83E00002070BD000030B585B08B
:1018000000240094019402940394006818498842CB
:101810002CD11848816941F480418161816901F4CA
:1018200080410491816941F0040181618069124D18
:1018300000F0040004904FF400700090022001902A
:101840000320039069462846FFF77AFA2815CDE968
:101850000004694628460294FFF772FA00221146F6
:101860002520FFF7CFFB2520FFF7BEFB05B030BDDD
:1018700000380140001002400008014090F83E305E
:10188000202B0ED159B152B190F83C30012B08D029
:10189000012380F83C300023036300F021BA0120CB
:1018A0007047022070470000214810B5017800F110
:1018B00010043039216041780C2230396160817820
:1018C0003039A16001793039E160417930392161E5
:1018D000817930396161017A3039A161417A3039D9
:1018E000E161807A12493038206201F17C00FFF713
:1018F000C5FF04F1E4002178017021794170217A5B
:101900008170217BC170217C0171217D4171217E1B
:101910008171217FC17194F8201001720246A0F1FB
:101920003401BDE81040034BA038FEF7E8BD0000CD
:1019300030000020080000202DE9F843044690F80C
:101940003D001F4616460D4620284CD1C5B1BEB1FC
:1019500094F83C00012846D0012084F83C004FF068
:101960000008C4F84080212084F83D00FFF7DEFA2B
:10197000A6848146E684A068B0F5805F03D004E0C9
:101980000120BDE8F883206928B12E465FF00005EC
:1019900084F83C800EE00026FAE78021204600F023
:1019A000BAF9A0B9AEB116F8010B21684860E08C15
:1019B000401EE084E08C4B464FF000020097002868
:1019C000EBD14FF04001204600F0A5F930B10320E3
:1019D000D7E735F8020BC0F30800E6E7202084F8CB
:1019E0003D000020CDE70220CBE77047FEE7000076
:1019F00010B517488AB01549016012210024C0E9CA
:101A000001144FF48031C0E9034144610476447607
:101A10008476C47604774477FEF7CAFF08B172B6BD
:101A2000FEE701200D21CDE904014FF41251089089
:101A3000CDE90014CDE90214CDE906400A20099051
:101A400069460348FEF7CAFD0AB010BD00640040B5
:101A50008400002070B586B00024184800940194DA
:101A600002940394816941F010018161816901F060
:101A700010010491816941F020018161816901F0C7
:101A800020010491816941F00401816180690C4E5B
:101A900000F004004FF4005504900022294630461F
:101AA000FFF73EFA01200095CDE9010402200390E2
:101AB00069463046FFF744F906B070BD0010024099
:101AC00000100140FEE7FEE770477047FFF734BAA9
:101AD00030B58FB028216846FEF71DFC14210AA8F6
:101AE000FEF719FC01210804CDE90010002402943E
:101AF00002250491CDE907504FF4E01009906846A3
:101B0000FFF79EFB08B172B6FEE70F20CDE90A058C
:101B10004FF48060CDE90C4002210AA80E94FFF733
:101B2000A3FA002801D072B6FEE70FB030BD7047AF
:101B300010B5406A0021C185C184FFF726FD10BDA4
:101B40000168CA6822F49072CA6001684A6922F08A
:101B500001024A61016B012904D10168CA6822F0BF
:101B60001002CA60202180F83E10002101637047F6
:101B700008B590F83E10222901D0022008BD8268E5
:101B80004FF480539A4201D1016921B1816A9A428E
:101B90001BD04AB10AE00268816A5268C2F30802A7
:101BA0000A80816A891C08E0026972B10268526881
:101BB00002F07F020A70816A491C8162C18D491E50
:101BC0000904090CC18503D019E002685268F1E7E5
:101BD0000168CA6822F02002CA600168CA6822F45B
:101BE0008072CA6001684A6922F001024A612021BC
:101BF00080F83E10016B012903D0FFF755FE00204D
:101C000008BD002101630168CA6822F01002CA60A1
:101C100001680A68D20602D50A6849680091818D78
:101C2000FFF7B2FCEBE7000070B5044600680169FD
:101C3000E26821F44051114301612169A068084321
:101C4000616908432168CA6841F20C639A43024300
:101C5000CA6020684169A26921F440711143416161
:101C60001E492068884202D1FFF7A4FA01E0FFF77D
:101C700091FA00EBC00101EB001260686421800062
:101C8000B2FBF0F3B3FBF1F36FF018067343B2FB52
:101C9000F0F5B2FBF0F605EB8305322303EB0515F7
:101CA000B5FBF1F5B6FBF1F605F0F00505EB061511
:101CB000B2FBF0F6B2FBF0F0B0FBF1F06FF01802FF
:101CC000504306EB800003EB0010B0FBF1F02168FD
:101CD00000F00F002844886070BD0000003801400B
:101CE00081628285C28500210164222280F83E2023
:101CF00080F83C100168CA6842F48072CA600168CA
:101D00004A6942F001024A610068C16841F020015D
:101D1000C160002070472DE9F041984617460E46F5
:101D20000446069D1DE0681C1BD02DB1FFF7FEF890
:101D3000A0EB0800A84214D92068C16821F4D07132
:101D4000C1602068416921F001014161202084F8CF
:101D50003D0084F83E00002084F83C000320BDE8EC
:101D6000F0812068006836EA000004D00020B84204
:101D7000D9D00020F3E70120F9E700000148FFF780
:101D800005BC0000AC0000200148FEF713BD0000B8
:101D900084000020FEE70907090E002804DB00F19B
:101DA000E02080F80014704700F00F0000F1E02000
:101DB00080F8141D70470000FFF7C6F8FFF788FE93
:101DC000FFF748FEFFF714FE394838490024016048
:101DD0004FF4E131C0E901140C21C460C0E90441B1
:101DE0008461C461FFF7D8FC08B172B6FEE73048E1
:101DF0002838FEF703FF2E4810212838FEF76DFB28
:101E00002B480A21443000F11802016103211161BD
:101E100084604FF6FE71C46001600475446044380C
:101E2000FFF7BAFC22490C227C392148FFF726FD36
:101E3000204D6868401C686028680128F9D11C485A
:101E40001DA14838EA68FEF7C3F919484838FEF77B
:101E500043FA174982B24FF0FF36334648391448E7
:101E6000FFF76AFD124819A148382A69FEF7B0F950
:101E70000F484838FEF730FA0D4982B233464839E8
:101E80000B48FFF759FD0A4815A148386A69FEF763
:101E90009FF907484838FEF71FFA054982B23346D2
:101EA00048390348FFF748FD2C60C2E7003801407D
:101EB000AC00002000000020416E676C65203120DE
:101EC000203D202569200D0A00000000416E676C4E
:101ED00065203220203D6973202569200D0A00000D
:101EE000416E676C652033203D6973202569200DA4
:101EF0000A000000000000000000000001020304CE
:101F00000607080900000000010203042C1F000856
:101F10000000002030000000280100085C1F0008BD
:101F200030000020680700004401000800000000A5
:101F300000000000000000000000000000000000A1
:101F40000000000000000000000000000100000090
:0C1F500010000000000000000024F4005D
:04000005080000ED02
:00000001FF
